{
    "_format": "hh-sol-artifact-1",
    "contractName": "LegalRoleRegistry2",
    "sourceName": "contracts/LegalRoleRegistry2.sol",
    "abi": [
        {
            "inputs": [],
            "stateMutability": "nonpayable",
            "type": "constructor"
        },
        {
            "anonymous": false,
            "inputs": [
                {
                    "indexed": true,
                    "internalType": "string",
                    "name": "caseId",
                    "type": "string"
                },
                {
                    "indexed": true,
                    "internalType": "address",
                    "name": "clientId",
                    "type": "address"
                },
                {
                    "indexed": true,
                    "internalType": "address",
                    "name": "lawyerId",
                    "type": "address"
                },
                {
                    "indexed": false,
                    "internalType": "string",
                    "name": "documentLink",
                    "type": "string"
                }
            ],
            "name": "CaseAdded",
            "type": "event"
        },
        {
            "anonymous": false,
            "inputs": [
                {
                    "indexed": true,
                    "internalType": "address",
                    "name": "client",
                    "type": "address"
                },
                {
                    "indexed": false,
                    "internalType": "bool",
                    "name": "alreadyExists",
                    "type": "bool"
                },
                {
                    "indexed": false,
                    "internalType": "bool",
                    "name": "inOtherRole",
                    "type": "bool"
                }
            ],
            "name": "ClientAdded",
            "type": "event"
        },
        {
            "anonymous": false,
            "inputs": [
                {
                    "indexed": true,
                    "internalType": "address",
                    "name": "judge",
                    "type": "address"
                },
                {
                    "indexed": false,
                    "internalType": "bool",
                    "name": "alreadyExists",
                    "type": "bool"
                },
                {
                    "indexed": false,
                    "internalType": "bool",
                    "name": "inOtherRole",
                    "type": "bool"
                }
            ],
            "name": "JudgeAdded",
            "type": "event"
        },
        {
            "anonymous": false,
            "inputs": [
                {
                    "indexed": true,
                    "internalType": "address",
                    "name": "lawyer",
                    "type": "address"
                },
                {
                    "indexed": false,
                    "internalType": "bool",
                    "name": "alreadyExists",
                    "type": "bool"
                },
                {
                    "indexed": false,
                    "internalType": "bool",
                    "name": "inOtherRole",
                    "type": "bool"
                }
            ],
            "name": "LawyerAdded",
            "type": "event"
        },
        {
            "inputs": [
                {
                    "internalType": "string",
                    "name": "_caseId",
                    "type": "string"
                },
                {
                    "internalType": "address",
                    "name": "_clientId",
                    "type": "address"
                },
                {
                    "internalType": "address",
                    "name": "_lawyerId",
                    "type": "address"
                },
                {
                    "internalType": "string",
                    "name": "_documentLink",
                    "type": "string"
                }
            ],
            "name": "addCase",
            "outputs": [],
            "stateMutability": "nonpayable",
            "type": "function"
        },
        {
            "inputs": [
                {
                    "internalType": "address",
                    "name": "_client",
                    "type": "address"
                },
                {
                    "internalType": "string",
                    "name": "_clientName",
                    "type": "string"
                },
                {
                    "internalType": "string",
                    "name": "_caseId",
                    "type": "string"
                },
                {
                    "internalType": "address",
                    "name": "_lawyerId",
                    "type": "address"
                }
            ],
            "name": "addClient",
            "outputs": [],
            "stateMutability": "nonpayable",
            "type": "function"
        },
        {
            "inputs": [
                {
                    "internalType": "address",
                    "name": "_judge",
                    "type": "address"
                },
                {
                    "internalType": "string",
                    "name": "_name",
                    "type": "string"
                }
            ],
            "name": "addJudge",
            "outputs": [],
            "stateMutability": "nonpayable",
            "type": "function"
        },
        {
            "inputs": [
                {
                    "internalType": "address",
                    "name": "_lawyer",
                    "type": "address"
                },
                {
                    "internalType": "string",
                    "name": "_lawyerName",
                    "type": "string"
                }
            ],
            "name": "addLawyer",
            "outputs": [],
            "stateMutability": "nonpayable",
            "type": "function"
        },
        {
            "inputs": [],
            "name": "admin",
            "outputs": [
                {
                    "internalType": "address",
                    "name": "",
                    "type": "address"
                }
            ],
            "stateMutability": "view",
            "type": "function"
        },
        {
            "inputs": [
                {
                    "internalType": "string",
                    "name": "",
                    "type": "string"
                }
            ],
            "name": "cases",
            "outputs": [
                {
                    "internalType": "string",
                    "name": "caseId",
                    "type": "string"
                },
                {
                    "internalType": "address",
                    "name": "clientId",
                    "type": "address"
                },
                {
                    "internalType": "address",
                    "name": "lawyerId",
                    "type": "address"
                },
                {
                    "internalType": "string",
                    "name": "documentLink",
                    "type": "string"
                }
            ],
            "stateMutability": "view",
            "type": "function"
        },
        {
            "inputs": [
                {
                    "internalType": "address",
                    "name": "",
                    "type": "address"
                }
            ],
            "name": "clientInfo",
            "outputs": [
                {
                    "internalType": "string",
                    "name": "clientName",
                    "type": "string"
                },
                {
                    "internalType": "address",
                    "name": "clientAddress",
                    "type": "address"
                },
                {
                    "internalType": "string",
                    "name": "caseId",
                    "type": "string"
                },
                {
                    "internalType": "address",
                    "name": "lawyerId",
                    "type": "address"
                }
            ],
            "stateMutability": "view",
            "type": "function"
        },
        {
            "inputs": [
                {
                    "internalType": "address",
                    "name": "",
                    "type": "address"
                }
            ],
            "name": "clients",
            "outputs": [
                {
                    "internalType": "enum LegalRoleRegistry2.Role",
                    "name": "",
                    "type": "uint8"
                }
            ],
            "stateMutability": "view",
            "type": "function"
        },
        {
            "inputs": [
                {
                    "internalType": "uint256",
                    "name": "",
                    "type": "uint256"
                }
            ],
            "name": "clientsArray",
            "outputs": [
                {
                    "internalType": "address",
                    "name": "",
                    "type": "address"
                }
            ],
            "stateMutability": "view",
            "type": "function"
        },
        {
            "inputs": [
                {
                    "internalType": "string",
                    "name": "_caseId",
                    "type": "string"
                }
            ],
            "name": "getCaseDetails",
            "outputs": [
                {
                    "internalType": "string",
                    "name": "",
                    "type": "string"
                },
                {
                    "internalType": "address",
                    "name": "",
                    "type": "address"
                },
                {
                    "internalType": "address",
                    "name": "",
                    "type": "address"
                },
                {
                    "internalType": "address",
                    "name": "",
                    "type": "address"
                },
                {
                    "internalType": "string",
                    "name": "",
                    "type": "string"
                }
            ],
            "stateMutability": "view",
            "type": "function"
        },
        {
            "inputs": [],
            "name": "getClientArray",
            "outputs": [
                {
                    "internalType": "address[]",
                    "name": "",
                    "type": "address[]"
                }
            ],
            "stateMutability": "view",
            "type": "function"
        },
        {
            "inputs": [
                {
                    "internalType": "address",
                    "name": "_client",
                    "type": "address"
                }
            ],
            "name": "getClientDetails",
            "outputs": [
                {
                    "internalType": "string",
                    "name": "",
                    "type": "string"
                },
                {
                    "internalType": "address",
                    "name": "",
                    "type": "address"
                },
                {
                    "internalType": "string",
                    "name": "",
                    "type": "string"
                },
                {
                    "internalType": "address",
                    "name": "",
                    "type": "address"
                }
            ],
            "stateMutability": "view",
            "type": "function"
        },
        {
            "inputs": [
                {
                    "internalType": "address",
                    "name": "_judge",
                    "type": "address"
                }
            ],
            "name": "getJudgeDetails",
            "outputs": [
                {
                    "internalType": "string",
                    "name": "",
                    "type": "string"
                },
                {
                    "internalType": "address",
                    "name": "",
                    "type": "address"
                },
                {
                    "internalType": "string[]",
                    "name": "",
                    "type": "string[]"
                },
                {
                    "internalType": "address[]",
                    "name": "",
                    "type": "address[]"
                }
            ],
            "stateMutability": "view",
            "type": "function"
        },
        {
            "inputs": [],
            "name": "getJudgesArray",
            "outputs": [
                {
                    "internalType": "address[]",
                    "name": "",
                    "type": "address[]"
                }
            ],
            "stateMutability": "view",
            "type": "function"
        },
        {
            "inputs": [
                {
                    "internalType": "address",
                    "name": "_lawyer",
                    "type": "address"
                }
            ],
            "name": "getLawyerDetails",
            "outputs": [
                {
                    "internalType": "string",
                    "name": "",
                    "type": "string"
                },
                {
                    "internalType": "address",
                    "name": "",
                    "type": "address"
                },
                {
                    "internalType": "string[]",
                    "name": "",
                    "type": "string[]"
                },
                {
                    "internalType": "address[]",
                    "name": "",
                    "type": "address[]"
                }
            ],
            "stateMutability": "view",
            "type": "function"
        },
        {
            "inputs": [],
            "name": "getLawyersArray",
            "outputs": [
                {
                    "internalType": "address[]",
                    "name": "",
                    "type": "address[]"
                }
            ],
            "stateMutability": "view",
            "type": "function"
        },
        {
            "inputs": [
                {
                    "internalType": "address",
                    "name": "",
                    "type": "address"
                }
            ],
            "name": "judgeInfo",
            "outputs": [
                {
                    "internalType": "string",
                    "name": "name",
                    "type": "string"
                },
                {
                    "internalType": "address",
                    "name": "judgeAddress",
                    "type": "address"
                }
            ],
            "stateMutability": "view",
            "type": "function"
        },
        {
            "inputs": [
                {
                    "internalType": "address",
                    "name": "",
                    "type": "address"
                }
            ],
            "name": "judges",
            "outputs": [
                {
                    "internalType": "enum LegalRoleRegistry2.Role",
                    "name": "",
                    "type": "uint8"
                }
            ],
            "stateMutability": "view",
            "type": "function"
        },
        {
            "inputs": [
                {
                    "internalType": "uint256",
                    "name": "",
                    "type": "uint256"
                }
            ],
            "name": "judgesArray",
            "outputs": [
                {
                    "internalType": "address",
                    "name": "",
                    "type": "address"
                }
            ],
            "stateMutability": "view",
            "type": "function"
        },
        {
            "inputs": [
                {
                    "internalType": "address",
                    "name": "",
                    "type": "address"
                }
            ],
            "name": "lawyerInfo",
            "outputs": [
                {
                    "internalType": "string",
                    "name": "lawyerName",
                    "type": "string"
                },
                {
                    "internalType": "address",
                    "name": "lawyerId",
                    "type": "address"
                }
            ],
            "stateMutability": "view",
            "type": "function"
        },
        {
            "inputs": [
                {
                    "internalType": "address",
                    "name": "",
                    "type": "address"
                }
            ],
            "name": "lawyers",
            "outputs": [
                {
                    "internalType": "enum LegalRoleRegistry2.Role",
                    "name": "",
                    "type": "uint8"
                }
            ],
            "stateMutability": "view",
            "type": "function"
        },
        {
            "inputs": [
                {
                    "internalType": "uint256",
                    "name": "",
                    "type": "uint256"
                }
            ],
            "name": "lawyersArray",
            "outputs": [
                {
                    "internalType": "address",
                    "name": "",
                    "type": "address"
                }
            ],
            "stateMutability": "view",
            "type": "function"
        }
    ],
    "bytecode": "0x608060405234801561001057600080fd5b50336000806101000a81548173ffffffffffffffffffffffffffffffffffffffff021916908373ffffffffffffffffffffffffffffffffffffffff160217905550614457806100606000396000f3fe608060405234801561001057600080fd5b50600436106101425760003560e01c8063758dde96116100b8578063e9aa92931161007c578063e9aa9293146103f7578063ee32094a14610413578063ee43987214610446578063f30d851a14610462578063f851a44014610495578063fb6d24b9146104b357610142565b8063758dde96146102fe5780638422a2f2146103315780638bf3bbed14610361578063d82e61ae14610394578063df965829146103c457610142565b806330b8f3721161010a57806330b8f37214610215578063554ae5671461024657806361eed2a91461027657806366267d9b146102a65780636dbeacd2146102c25780637161f890146102e057610142565b80630211375814610147578063069361ed1461017b57806310a7c0011461019957806315259ad1146101c95780632ccdf78b146101e5575b600080fd5b610161600480360381019061015c91906137b5565b6104e4565b604051610172959493929190613e5c565b60405180910390f35b610183610ae7565b6040516101909190613da4565b60405180910390f35b6101b360048036038101906101ae9190613889565b610c03565b6040516101c09190613d89565b60405180910390f35b6101e360048036038101906101de91906137f6565b610c42565b005b6101ff60048036038101906101fa9190613889565b6111c7565b60405161020c9190613d89565b60405180910390f35b61022f600480360381019061022a91906136a5565b611206565b60405161023d929190613e2c565b60405180910390f35b610260600480360381019061025b91906136a5565b6112d2565b60405161026d9190613def565b60405180910390f35b610290600480360381019061028b91906136a5565b6112f2565b60405161029d9190613def565b60405180910390f35b6102c060048036038101906102bb91906136ce565b611312565b005b6102ca6117a7565b6040516102d79190613da4565b60405180910390f35b6102e86118c3565b6040516102f59190613da4565b60405180910390f35b610318600480360381019061031391906136a5565b6119df565b6040516103289493929190613f6a565b60405180910390f35b61034b600480360381019061034691906136a5565b611b5f565b6040516103589190613def565b60405180910390f35b61037b600480360381019061037691906136a5565b611b7f565b60405161038b9493929190613f6a565b60405180910390f35b6103ae60048036038101906103a99190613889565b611f57565b6040516103bb9190613d89565b60405180910390f35b6103de60048036038101906103d991906137b5565b611f96565b6040516103ee9493929190613ebd565b60405180910390f35b610411600480360381019061040c9190613722565b61212c565b005b61042d600480360381019061042891906136a5565b612520565b60405161043d9493929190613f10565b60405180910390f35b610460600480360381019061045b91906136ce565b612974565b005b61047c600480360381019061047791906136a5565b612e09565b60405161048c9493929190613f10565b60405180910390f35b61049d61325e565b6040516104aa9190613d89565b60405180910390f35b6104cd60048036038101906104c891906136a5565b613282565b6040516104db929190613e2c565b60405180910390f35b60606000806000606060008054906101000a900473ffffffffffffffffffffffffffffffffffffffff1673ffffffffffffffffffffffffffffffffffffffff163373ffffffffffffffffffffffffffffffffffffffff161461057b576040517f08c379a000000000000000000000000000000000000000000000000000000000815260040161057290613fbd565b60405180910390fd5b6000806000606060005b600880549050811015610805578a8051906020012060066000600884815481106105d8577f4e487b7100000000000000000000000000000000000000000000000000000000600052603260045260246000fd5b9060005260206000200160009054906101000a900473ffffffffffffffffffffffffffffffffffffffff1673ffffffffffffffffffffffffffffffffffffffff1673ffffffffffffffffffffffffffffffffffffffff16815260200190815260200160002060020160405161064d9190613d5b565b604051809103902014156107f2576006600060088381548110610699577f4e487b7100000000000000000000000000000000000000000000000000000000600052603260045260246000fd5b9060005260206000200160009054906101000a900473ffffffffffffffffffffffffffffffffffffffff1673ffffffffffffffffffffffffffffffffffffffff1673ffffffffffffffffffffffffffffffffffffffff16815260200190815260200160002060010160009054906101000a900473ffffffffffffffffffffffffffffffffffffffff1694506006600060088381548110610762577f4e487b7100000000000000000000000000000000000000000000000000000000600052603260045260246000fd5b9060005260206000200160009054906101000a900473ffffffffffffffffffffffffffffffffffffffff1673ffffffffffffffffffffffffffffffffffffffff1673ffffffffffffffffffffffffffffffffffffffff16815260200190815260200160002060030160009054906101000a900473ffffffffffffffffffffffffffffffffffffffff169350610805565b80806107fd906142c9565b915050610585565b5060005b600980549050811015610aca5760005b6005600060098481548110610857577f4e487b7100000000000000000000000000000000000000000000000000000000600052603260045260246000fd5b9060005260206000200160009054906101000a900473ffffffffffffffffffffffffffffffffffffffff1673ffffffffffffffffffffffffffffffffffffffff1673ffffffffffffffffffffffffffffffffffffffff16815260200190815260200160002060020180549050811015610ab6578b805190602001206005600060098581548110610910577f4e487b7100000000000000000000000000000000000000000000000000000000600052603260045260246000fd5b9060005260206000200160009054906101000a900473ffffffffffffffffffffffffffffffffffffffff1673ffffffffffffffffffffffffffffffffffffffff1673ffffffffffffffffffffffffffffffffffffffff16815260200190815260200160002060020182815481106109b0577f4e487b7100000000000000000000000000000000000000000000000000000000600052603260045260246000fd5b906000526020600020016040516109c79190613d5b565b60405180910390201415610aa3576005600060098481548110610a13577f4e487b7100000000000000000000000000000000000000000000000000000000600052603260045260246000fd5b9060005260206000200160009054906101000a900473ffffffffffffffffffffffffffffffffffffffff1673ffffffffffffffffffffffffffffffffffffffff1673ffffffffffffffffffffffffffffffffffffffff16815260200190815260200160002060010160009054906101000a900473ffffffffffffffffffffffffffffffffffffffff169350610ab6565b8080610aae906142c9565b915050610819565b508080610ac2906142c9565b915050610809565b508984848484985098509850985098505050505091939590929450565b606060008054906101000a900473ffffffffffffffffffffffffffffffffffffffff1673ffffffffffffffffffffffffffffffffffffffff163373ffffffffffffffffffffffffffffffffffffffff1614610b77576040517f08c379a0000000000000000000000000000000000000000000000000000000008152600401610b6e90613fbd565b60405180910390fd5b6008805480602002602001604051908101604052809291908181526020018280548015610bf957602002820191906000526020600020905b8160009054906101000a900473ffffffffffffffffffffffffffffffffffffffff1673ffffffffffffffffffffffffffffffffffffffff1681526020019060010190808311610baf575b5050505050905090565b60088181548110610c1357600080fd5b906000526020600020016000915054906101000a900473ffffffffffffffffffffffffffffffffffffffff1681565b60008054906101000a900473ffffffffffffffffffffffffffffffffffffffff1673ffffffffffffffffffffffffffffffffffffffff163373ffffffffffffffffffffffffffffffffffffffff1614610cd0576040517f08c379a0000000000000000000000000000000000000000000000000000000008152600401610cc790613fbd565b60405180910390fd5b60006002811115610d0a577f4e487b7100000000000000000000000000000000000000000000000000000000600052602160045260246000fd5b600260008573ffffffffffffffffffffffffffffffffffffffff1673ffffffffffffffffffffffffffffffffffffffff16815260200190815260200160002060009054906101000a900460ff166002811115610d8f577f4e487b7100000000000000000000000000000000000000000000000000000000600052602160045260246000fd5b14610dcf576040517f08c379a0000000000000000000000000000000000000000000000000000000008152600401610dc69061405d565b60405180910390fd5b600280811115610e08577f4e487b7100000000000000000000000000000000000000000000000000000000600052602160045260246000fd5b600460008473ffffffffffffffffffffffffffffffffffffffff1673ffffffffffffffffffffffffffffffffffffffff16815260200190815260200160002060009054906101000a900460ff166002811115610e8d577f4e487b7100000000000000000000000000000000000000000000000000000000600052602160045260246000fd5b14610ecd576040517f08c379a0000000000000000000000000000000000000000000000000000000008152600401610ec49061407d565b60405180910390fd5b6000600185604051610edf9190613d72565b90815260200160405180910390206000018054610efb90614297565b905014610f3d576040517f08c379a0000000000000000000000000000000000000000000000000000000008152600401610f349061403d565b60405180910390fd5b60405180608001604052808581526020018473ffffffffffffffffffffffffffffffffffffffff1681526020018373ffffffffffffffffffffffffffffffffffffffff16815260200182815250600185604051610f9a9190613d72565b90815260200160405180910390206000820151816000019080519060200190610fc4929190613422565b5060208201518160010160006101000a81548173ffffffffffffffffffffffffffffffffffffffff021916908373ffffffffffffffffffffffffffffffffffffffff16021790555060408201518160020160006101000a81548173ffffffffffffffffffffffffffffffffffffffff021916908373ffffffffffffffffffffffffffffffffffffffff160217905550606082015181600301908051906020019061106f929190613422565b5090505083600660008573ffffffffffffffffffffffffffffffffffffffff1673ffffffffffffffffffffffffffffffffffffffff16815260200190815260200160002060020190805190602001906110c9929190613422565b50600760008373ffffffffffffffffffffffffffffffffffffffff1673ffffffffffffffffffffffffffffffffffffffff16815260200190815260200160002060020184908060018154018082558091505060019003906000526020600020016000909190919091509080519060200190611145929190613422565b508173ffffffffffffffffffffffffffffffffffffffff168373ffffffffffffffffffffffffffffffffffffffff16856040516111829190613d72565b60405180910390207fa19b5ab1673d3ab0bc63dbad08f6ff34ea61e8c3629d770258f694a7134cf9c5846040516111b99190613e0a565b60405180910390a450505050565b600a81815481106111d757600080fd5b906000526020600020016000915054906101000a900473ffffffffffffffffffffffffffffffffffffffff1681565b600760205280600052604060002060009150905080600001805461122990614297565b80601f016020809104026020016040519081016040528092919081815260200182805461125590614297565b80156112a25780601f10611277576101008083540402835291602001916112a2565b820191906000526020600020905b81548152906001019060200180831161128557829003601f168201915b5050505050908060010160009054906101000a900473ffffffffffffffffffffffffffffffffffffffff16905082565b60046020528060005260406000206000915054906101000a900460ff1681565b60026020528060005260406000206000915054906101000a900460ff1681565b60008054906101000a900473ffffffffffffffffffffffffffffffffffffffff1673ffffffffffffffffffffffffffffffffffffffff163373ffffffffffffffffffffffffffffffffffffffff16146113a0576040517f08c379a000000000000000000000000000000000000000000000000000000000815260040161139790613fbd565b60405180910390fd5b6113ab82600861334e565b1580156113c057506113be82600961334e565b155b6113ff576040517f08c379a00000000000000000000000000000000000000000000000000000000081526004016113f69061409d565b60405180910390fd5b61140a82600a61334e565b15611466578173ffffffffffffffffffffffffffffffffffffffff167fdb69ab68829e12cd41e2ca9bf6dac6445fb1201e056234253beea2ad24ac959a60016000604051611459929190613dc6565b60405180910390a26117a3565b6002600460008473ffffffffffffffffffffffffffffffffffffffff1673ffffffffffffffffffffffffffffffffffffffff16815260200190815260200160002060006101000a81548160ff021916908360028111156114ef577f4e487b7100000000000000000000000000000000000000000000000000000000600052602160045260246000fd5b0217905550600a829080600181540180825580915050600190039060005260206000200160009091909190916101000a81548173ffffffffffffffffffffffffffffffffffffffff021916908373ffffffffffffffffffffffffffffffffffffffff16021790555060405180608001604052808281526020018373ffffffffffffffffffffffffffffffffffffffff168152602001600067ffffffffffffffff8111156115c5577f4e487b7100000000000000000000000000000000000000000000000000000000600052604160045260246000fd5b6040519080825280602002602001820160405280156115f857816020015b60608152602001906001900390816115e35790505b508152602001600067ffffffffffffffff81111561163f577f4e487b7100000000000000000000000000000000000000000000000000000000600052604160045260246000fd5b60405190808252806020026020018201604052801561166d5781602001602082028036833780820191505090505b50815250600760008473ffffffffffffffffffffffffffffffffffffffff1673ffffffffffffffffffffffffffffffffffffffff16815260200190815260200160002060008201518160000190805190602001906116cc929190613422565b5060208201518160010160006101000a81548173ffffffffffffffffffffffffffffffffffffffff021916908373ffffffffffffffffffffffffffffffffffffffff16021790555060408201518160020190805190602001906117309291906134a8565b50606082015181600301908051906020019061174d929190613508565b509050508173ffffffffffffffffffffffffffffffffffffffff167fdb69ab68829e12cd41e2ca9bf6dac6445fb1201e056234253beea2ad24ac959a60008060405161179a929190613dc6565b60405180910390a25b5050565b606060008054906101000a900473ffffffffffffffffffffffffffffffffffffffff1673ffffffffffffffffffffffffffffffffffffffff163373ffffffffffffffffffffffffffffffffffffffff1614611837576040517f08c379a000000000000000000000000000000000000000000000000000000000815260040161182e90613fbd565b60405180910390fd5b60098054806020026020016040519081016040528092919081815260200182805480156118b957602002820191906000526020600020905b8160009054906101000a900473ffffffffffffffffffffffffffffffffffffffff1673ffffffffffffffffffffffffffffffffffffffff168152602001906001019080831161186f575b5050505050905090565b606060008054906101000a900473ffffffffffffffffffffffffffffffffffffffff1673ffffffffffffffffffffffffffffffffffffffff163373ffffffffffffffffffffffffffffffffffffffff1614611953576040517f08c379a000000000000000000000000000000000000000000000000000000000815260040161194a90613fbd565b60405180910390fd5b600a8054806020026020016040519081016040528092919081815260200182805480156119d557602002820191906000526020600020905b8160009054906101000a900473ffffffffffffffffffffffffffffffffffffffff1673ffffffffffffffffffffffffffffffffffffffff168152602001906001019080831161198b575b5050505050905090565b6006602052806000526040600020600091509050806000018054611a0290614297565b80601f0160208091040260200160405190810160405280929190818152602001828054611a2e90614297565b8015611a7b5780601f10611a5057610100808354040283529160200191611a7b565b820191906000526020600020905b815481529060010190602001808311611a5e57829003601f168201915b5050505050908060010160009054906101000a900473ffffffffffffffffffffffffffffffffffffffff1690806002018054611ab690614297565b80601f0160208091040260200160405190810160405280929190818152602001828054611ae290614297565b8015611b2f5780601f10611b0457610100808354040283529160200191611b2f565b820191906000526020600020905b815481529060010190602001808311611b1257829003601f168201915b5050505050908060030160009054906101000a900473ffffffffffffffffffffffffffffffffffffffff16905084565b60036020528060005260406000206000915054906101000a900460ff1681565b60606000606060008060009054906101000a900473ffffffffffffffffffffffffffffffffffffffff1673ffffffffffffffffffffffffffffffffffffffff163373ffffffffffffffffffffffffffffffffffffffff1614611c16576040517f08c379a0000000000000000000000000000000000000000000000000000000008152600401611c0d90613fbd565b60405180910390fd5b60006002811115611c50577f4e487b7100000000000000000000000000000000000000000000000000000000600052602160045260246000fd5b600260008773ffffffffffffffffffffffffffffffffffffffff1673ffffffffffffffffffffffffffffffffffffffff16815260200190815260200160002060009054906101000a900460ff166002811115611cd5577f4e487b7100000000000000000000000000000000000000000000000000000000600052602160045260246000fd5b14611d15576040517f08c379a0000000000000000000000000000000000000000000000000000000008152600401611d0c9061401d565b60405180910390fd5b6000600660008773ffffffffffffffffffffffffffffffffffffffff1673ffffffffffffffffffffffffffffffffffffffff168152602001908152602001600020604051806080016040529081600082018054611d7190614297565b80601f0160208091040260200160405190810160405280929190818152602001828054611d9d90614297565b8015611dea5780601f10611dbf57610100808354040283529160200191611dea565b820191906000526020600020905b815481529060010190602001808311611dcd57829003601f168201915b505050505081526020016001820160009054906101000a900473ffffffffffffffffffffffffffffffffffffffff1673ffffffffffffffffffffffffffffffffffffffff1673ffffffffffffffffffffffffffffffffffffffff168152602001600282018054611e5990614297565b80601f0160208091040260200160405190810160405280929190818152602001828054611e8590614297565b8015611ed25780601f10611ea757610100808354040283529160200191611ed2565b820191906000526020600020905b815481529060010190602001808311611eb557829003601f168201915b505050505081526020016003820160009054906101000a900473ffffffffffffffffffffffffffffffffffffffff1673ffffffffffffffffffffffffffffffffffffffff1673ffffffffffffffffffffffffffffffffffffffff1681525050905080600001518160200151826040015183606001519450945094509450509193509193565b60098181548110611f6757600080fd5b906000526020600020016000915054906101000a900473ffffffffffffffffffffffffffffffffffffffff1681565b600181805160208101820180518482526020830160208501208183528095505050505050600091509050806000018054611fcf90614297565b80601f0160208091040260200160405190810160405280929190818152602001828054611ffb90614297565b80156120485780601f1061201d57610100808354040283529160200191612048565b820191906000526020600020905b81548152906001019060200180831161202b57829003601f168201915b5050505050908060010160009054906101000a900473ffffffffffffffffffffffffffffffffffffffff16908060020160009054906101000a900473ffffffffffffffffffffffffffffffffffffffff16908060030180546120a990614297565b80601f01602080910402602001604051908101604052809291908181526020018280546120d590614297565b80156121225780601f106120f757610100808354040283529160200191612122565b820191906000526020600020905b81548152906001019060200180831161210557829003601f168201915b5050505050905084565b60008054906101000a900473ffffffffffffffffffffffffffffffffffffffff1673ffffffffffffffffffffffffffffffffffffffff163373ffffffffffffffffffffffffffffffffffffffff16146121ba576040517f08c379a00000000000000000000000000000000000000000000000000000000081526004016121b190613fbd565b60405180910390fd5b6121c584600961334e565b1580156121da57506121d884600a61334e565b155b612219576040517f08c379a00000000000000000000000000000000000000000000000000000000081526004016122109061409d565b60405180910390fd5b61222484600861334e565b15612280578373ffffffffffffffffffffffffffffffffffffffff167f1df415070dce6424853ed95bdfbde2ec34759b8ad5605be6c8aef75477943d9f60016000604051612273929190613dc6565b60405180910390a261251a565b6000600260008673ffffffffffffffffffffffffffffffffffffffff1673ffffffffffffffffffffffffffffffffffffffff16815260200190815260200160002060006101000a81548160ff02191690836002811115612309577f4e487b7100000000000000000000000000000000000000000000000000000000600052602160045260246000fd5b02179055506008849080600181540180825580915050600190039060005260206000200160009091909190916101000a81548173ffffffffffffffffffffffffffffffffffffffff021916908373ffffffffffffffffffffffffffffffffffffffff16021790555060405180608001604052808481526020018573ffffffffffffffffffffffffffffffffffffffff1681526020018381526020018273ffffffffffffffffffffffffffffffffffffffff16815250600660008673ffffffffffffffffffffffffffffffffffffffff1673ffffffffffffffffffffffffffffffffffffffff1681526020019081526020016000206000820151816000019080519060200190612419929190613422565b5060208201518160010160006101000a81548173ffffffffffffffffffffffffffffffffffffffff021916908373ffffffffffffffffffffffffffffffffffffffff160217905550604082015181600201908051906020019061247d929190613422565b5060608201518160030160006101000a81548173ffffffffffffffffffffffffffffffffffffffff021916908373ffffffffffffffffffffffffffffffffffffffff1602179055509050508373ffffffffffffffffffffffffffffffffffffffff167f1df415070dce6424853ed95bdfbde2ec34759b8ad5605be6c8aef75477943d9f600080604051612511929190613dc6565b60405180910390a25b50505050565b6060600060608060008054906101000a900473ffffffffffffffffffffffffffffffffffffffff1673ffffffffffffffffffffffffffffffffffffffff163373ffffffffffffffffffffffffffffffffffffffff16146125b5576040517f08c379a00000000000000000000000000000000000000000000000000000000081526004016125ac90613fbd565b60405180910390fd5b6002808111156125ee577f4e487b7100000000000000000000000000000000000000000000000000000000600052602160045260246000fd5b600460008773ffffffffffffffffffffffffffffffffffffffff1673ffffffffffffffffffffffffffffffffffffffff16815260200190815260200160002060009054906101000a900460ff166002811115612673577f4e487b7100000000000000000000000000000000000000000000000000000000600052602160045260246000fd5b146126b3576040517f08c379a00000000000000000000000000000000000000000000000000000000081526004016126aa90613fdd565b60405180910390fd5b6000600760008773ffffffffffffffffffffffffffffffffffffffff1673ffffffffffffffffffffffffffffffffffffffff16815260200190815260200160002060405180608001604052908160008201805461270f90614297565b80601f016020809104026020016040519081016040528092919081815260200182805461273b90614297565b80156127885780601f1061275d57610100808354040283529160200191612788565b820191906000526020600020905b81548152906001019060200180831161276b57829003601f168201915b505050505081526020016001820160009054906101000a900473ffffffffffffffffffffffffffffffffffffffff1673ffffffffffffffffffffffffffffffffffffffff1673ffffffffffffffffffffffffffffffffffffffff16815260200160028201805480602002602001604051908101604052809291908181526020016000905b828210156128b857838290600052602060002001805461282b90614297565b80601f016020809104026020016040519081016040528092919081815260200182805461285790614297565b80156128a45780601f10612879576101008083540402835291602001916128a4565b820191906000526020600020905b81548152906001019060200180831161288757829003601f168201915b50505050508152602001906001019061280c565b5050505081526020016003820180548060200260200160405190810160405280929190818152602001828054801561294557602002820191906000526020600020905b8160009054906101000a900473ffffffffffffffffffffffffffffffffffffffff1673ffffffffffffffffffffffffffffffffffffffff16815260200190600101908083116128fb575b505050505081525050905080600001518160200151826040015183606001519450945094509450509193509193565b60008054906101000a900473ffffffffffffffffffffffffffffffffffffffff1673ffffffffffffffffffffffffffffffffffffffff163373ffffffffffffffffffffffffffffffffffffffff1614612a02576040517f08c379a00000000000000000000000000000000000000000000000000000000081526004016129f990613fbd565b60405180910390fd5b612a0d82600861334e565b158015612a225750612a2082600a61334e565b155b612a61576040517f08c379a0000000000000000000000000000000000000000000000000000000008152600401612a589061409d565b60405180910390fd5b612a6c82600961334e565b15612ac8578173ffffffffffffffffffffffffffffffffffffffff167f1b5bf8e3f369e7eadc1c0e996abdb87f0006326ce19feba3360969409a26ab5060016000604051612abb929190613dc6565b60405180910390a2612e05565b6001600360008473ffffffffffffffffffffffffffffffffffffffff1673ffffffffffffffffffffffffffffffffffffffff16815260200190815260200160002060006101000a81548160ff02191690836002811115612b51577f4e487b7100000000000000000000000000000000000000000000000000000000600052602160045260246000fd5b02179055506009829080600181540180825580915050600190039060005260206000200160009091909190916101000a81548173ffffffffffffffffffffffffffffffffffffffff021916908373ffffffffffffffffffffffffffffffffffffffff16021790555060405180608001604052808281526020018373ffffffffffffffffffffffffffffffffffffffff168152602001600067ffffffffffffffff811115612c27577f4e487b7100000000000000000000000000000000000000000000000000000000600052604160045260246000fd5b604051908082528060200260200182016040528015612c5a57816020015b6060815260200190600190039081612c455790505b508152602001600067ffffffffffffffff811115612ca1577f4e487b7100000000000000000000000000000000000000000000000000000000600052604160045260246000fd5b604051908082528060200260200182016040528015612ccf5781602001602082028036833780820191505090505b50815250600560008473ffffffffffffffffffffffffffffffffffffffff1673ffffffffffffffffffffffffffffffffffffffff1681526020019081526020016000206000820151816000019080519060200190612d2e929190613422565b5060208201518160010160006101000a81548173ffffffffffffffffffffffffffffffffffffffff021916908373ffffffffffffffffffffffffffffffffffffffff1602179055506040820151816002019080519060200190612d929291906134a8565b506060820151816003019080519060200190612daf929190613508565b509050508173ffffffffffffffffffffffffffffffffffffffff167f1b5bf8e3f369e7eadc1c0e996abdb87f0006326ce19feba3360969409a26ab50600080604051612dfc929190613dc6565b60405180910390a25b5050565b6060600060608060008054906101000a900473ffffffffffffffffffffffffffffffffffffffff1673ffffffffffffffffffffffffffffffffffffffff163373ffffffffffffffffffffffffffffffffffffffff1614612e9e576040517f08c379a0000000000000000000000000000000000000000000000000000000008152600401612e9590613fbd565b60405180910390fd5b60016002811115612ed8577f4e487b7100000000000000000000000000000000000000000000000000000000600052602160045260246000fd5b600360008773ffffffffffffffffffffffffffffffffffffffff1673ffffffffffffffffffffffffffffffffffffffff16815260200190815260200160002060009054906101000a900460ff166002811115612f5d577f4e487b7100000000000000000000000000000000000000000000000000000000600052602160045260246000fd5b14612f9d576040517f08c379a0000000000000000000000000000000000000000000000000000000008152600401612f9490613ffd565b60405180910390fd5b6000600560008773ffffffffffffffffffffffffffffffffffffffff1673ffffffffffffffffffffffffffffffffffffffff168152602001908152602001600020604051806080016040529081600082018054612ff990614297565b80601f016020809104026020016040519081016040528092919081815260200182805461302590614297565b80156130725780601f1061304757610100808354040283529160200191613072565b820191906000526020600020905b81548152906001019060200180831161305557829003601f168201915b505050505081526020016001820160009054906101000a900473ffffffffffffffffffffffffffffffffffffffff1673ffffffffffffffffffffffffffffffffffffffff1673ffffffffffffffffffffffffffffffffffffffff16815260200160028201805480602002602001604051908101604052809291908181526020016000905b828210156131a257838290600052602060002001805461311590614297565b80601f016020809104026020016040519081016040528092919081815260200182805461314190614297565b801561318e5780601f106131635761010080835404028352916020019161318e565b820191906000526020600020905b81548152906001019060200180831161317157829003601f168201915b5050505050815260200190600101906130f6565b5050505081526020016003820180548060200260200160405190810160405280929190818152602001828054801561322f57602002820191906000526020600020905b8160009054906101000a900473ffffffffffffffffffffffffffffffffffffffff1673ffffffffffffffffffffffffffffffffffffffff16815260200190600101908083116131e5575b505050505081525050905080600001518160200151826040015183606001519450945094509450509193509193565b60008054906101000a900473ffffffffffffffffffffffffffffffffffffffff1681565b60056020528060005260406000206000915090508060000180546132a590614297565b80601f01602080910402602001604051908101604052809291908181526020018280546132d190614297565b801561331e5780601f106132f35761010080835404028352916020019161331e565b820191906000526020600020905b81548152906001019060200180831161330157829003601f168201915b5050505050908060010160009054906101000a900473ffffffffffffffffffffffffffffffffffffffff16905082565b600080600090505b8280549050811015613416578373ffffffffffffffffffffffffffffffffffffffff168382815481106133b2577f4e487b7100000000000000000000000000000000000000000000000000000000600052603260045260246000fd5b9060005260206000200160009054906101000a900473ffffffffffffffffffffffffffffffffffffffff1673ffffffffffffffffffffffffffffffffffffffff16141561340357600191505061341c565b808061340e906142c9565b915050613356565b50600090505b92915050565b82805461342e90614297565b90600052602060002090601f0160209004810192826134505760008555613497565b82601f1061346957805160ff1916838001178555613497565b82800160010185558215613497579182015b8281111561349657825182559160200191906001019061347b565b5b5090506134a49190613592565b5090565b8280548282559060005260206000209081019282156134f7579160200282015b828111156134f65782518290805190602001906134e6929190613422565b50916020019190600101906134c8565b5b50905061350491906135af565b5090565b828054828255906000526020600020908101928215613581579160200282015b828111156135805782518260006101000a81548173ffffffffffffffffffffffffffffffffffffffff021916908373ffffffffffffffffffffffffffffffffffffffff16021790555091602001919060010190613528565b5b50905061358e9190613592565b5090565b5b808211156135ab576000816000905550600101613593565b5090565b5b808211156135cf57600081816135c691906135d3565b506001016135b0565b5090565b5080546135df90614297565b6000825580601f106135f15750613610565b601f01602090049060005260206000209081019061360f9190613592565b5b50565b6000613626613621846140ee565b6140bd565b90508281526020810184848401111561363e57600080fd5b613649848285614255565b509392505050565b600081359050613660816143f3565b92915050565b600082601f83011261367757600080fd5b8135613687848260208601613613565b91505092915050565b60008135905061369f8161440a565b92915050565b6000602082840312156136b757600080fd5b60006136c584828501613651565b91505092915050565b600080604083850312156136e157600080fd5b60006136ef85828601613651565b925050602083013567ffffffffffffffff81111561370c57600080fd5b61371885828601613666565b9150509250929050565b6000806000806080858703121561373857600080fd5b600061374687828801613651565b945050602085013567ffffffffffffffff81111561376357600080fd5b61376f87828801613666565b935050604085013567ffffffffffffffff81111561378c57600080fd5b61379887828801613666565b92505060606137a987828801613651565b91505092959194509250565b6000602082840312156137c757600080fd5b600082013567ffffffffffffffff8111156137e157600080fd5b6137ed84828501613666565b91505092915050565b6000806000806080858703121561380c57600080fd5b600085013567ffffffffffffffff81111561382657600080fd5b61383287828801613666565b945050602061384387828801613651565b935050604061385487828801613651565b925050606085013567ffffffffffffffff81111561387157600080fd5b61387d87828801613666565b91505092959194509250565b60006020828403121561389b57600080fd5b60006138a984828501613690565b91505092915050565b60006138be83836138de565b60208301905092915050565b60006138d68383613a6c565b905092915050565b6138e7816141e8565b82525050565b6138f6816141e8565b82525050565b600061390782614153565b613911818561418e565b935061391c8361411e565b8060005b8381101561394d57815161393488826138b2565b975061393f83614174565b925050600181019050613920565b5085935050505092915050565b60006139658261415e565b61396f818561419f565b9350836020820285016139818561412e565b8060005b858110156139bd578484038952815161399e85826138ca565b94506139a983614181565b925060208a01995050600181019050613985565b50829750879550505050505092915050565b6139d8816141fa565b82525050565b600081546139eb81614297565b6139f581866141b0565b94506001821660008114613a105760018114613a2157613a54565b60ff19831686528186019350613a54565b613a2a8561413e565b60005b83811015613a4c57815481890152600182019150602081019050613a2d565b838801955050505b50505092915050565b613a6681614243565b82525050565b6000613a7782614169565b613a8181856141bb565b9350613a91818560208601614264565b613a9a816143ce565b840191505092915050565b6000613ab082614169565b613aba81856141cc565b9350613aca818560208601614264565b613ad3816143ce565b840191505092915050565b6000613ae982614169565b613af381856141dd565b9350613b03818560208601614264565b80840191505092915050565b6000613b1c6025836141cc565b91507f4f6e6c79207468652061646d696e2063616e2063616c6c20746869732066756e60008301527f6374696f6e0000000000000000000000000000000000000000000000000000006020830152604082019050919050565b6000613b826017836141cc565b91507f41646472657373206973206e6f742061206c61777965720000000000000000006000830152602082019050919050565b6000613bc26016836141cc565b91507f41646472657373206973206e6f742061206a75646765000000000000000000006000830152602082019050919050565b6000613c026017836141cc565b91507f41646472657373206973206e6f74206120636c69656e740000000000000000006000830152602082019050919050565b6000613c426013836141cc565b91507f4361736520616c726561647920657869737473000000000000000000000000006000830152602082019050919050565b6000613c826015836141cc565b91507f436c69656e7420646f6573206e6f7420657869737400000000000000000000006000830152602082019050919050565b6000613cc26015836141cc565b91507f4c617779657220646f6573206e6f7420657869737400000000000000000000006000830152602082019050919050565b6000613d026022836141cc565b91507f4164647265737320697320616c726561647920696e20616e6f7468657220726f60008301527f6c650000000000000000000000000000000000000000000000000000000000006020830152604082019050919050565b6000613d6782846139de565b915081905092915050565b6000613d7e8284613ade565b915081905092915050565b6000602082019050613d9e60008301846138ed565b92915050565b60006020820190508181036000830152613dbe81846138fc565b905092915050565b6000604082019050613ddb60008301856139cf565b613de860208301846139cf565b9392505050565b6000602082019050613e046000830184613a5d565b92915050565b60006020820190508181036000830152613e248184613aa5565b905092915050565b60006040820190508181036000830152613e468185613aa5565b9050613e5560208301846138ed565b9392505050565b600060a0820190508181036000830152613e768188613aa5565b9050613e8560208301876138ed565b613e9260408301866138ed565b613e9f60608301856138ed565b8181036080830152613eb18184613aa5565b90509695505050505050565b60006080820190508181036000830152613ed78187613aa5565b9050613ee660208301866138ed565b613ef360408301856138ed565b8181036060830152613f058184613aa5565b905095945050505050565b60006080820190508181036000830152613f2a8187613aa5565b9050613f3960208301866138ed565b8181036040830152613f4b818561395a565b90508181036060830152613f5f81846138fc565b905095945050505050565b60006080820190508181036000830152613f848187613aa5565b9050613f9360208301866138ed565b8181036040830152613fa58185613aa5565b9050613fb460608301846138ed565b95945050505050565b60006020820190508181036000830152613fd681613b0f565b9050919050565b60006020820190508181036000830152613ff681613b75565b9050919050565b6000602082019050818103600083015261401681613bb5565b9050919050565b6000602082019050818103600083015261403681613bf5565b9050919050565b6000602082019050818103600083015261405681613c35565b9050919050565b6000602082019050818103600083015261407681613c75565b9050919050565b6000602082019050818103600083015261409681613cb5565b9050919050565b600060208201905081810360008301526140b681613cf5565b9050919050565b6000604051905081810181811067ffffffffffffffff821117156140e4576140e361439f565b5b8060405250919050565b600067ffffffffffffffff8211156141095761410861439f565b5b601f19601f8301169050602081019050919050565b6000819050602082019050919050565b6000819050602082019050919050565b60008190508160005260206000209050919050565b600081519050919050565b600081519050919050565b600081519050919050565b6000602082019050919050565b6000602082019050919050565b600082825260208201905092915050565b600082825260208201905092915050565b600081905092915050565b600082825260208201905092915050565b600082825260208201905092915050565b600081905092915050565b60006141f382614219565b9050919050565b60008115159050919050565b6000819050614214826143df565b919050565b600073ffffffffffffffffffffffffffffffffffffffff82169050919050565b6000819050919050565b600061424e82614206565b9050919050565b82818337600083830152505050565b60005b83811015614282578082015181840152602081019050614267565b83811115614291576000848401525b50505050565b600060028204905060018216806142af57607f821691505b602082108114156142c3576142c2614370565b5b50919050565b60006142d482614239565b91507fffffffffffffffffffffffffffffffffffffffffffffffffffffffffffffffff82141561430757614306614312565b5b600182019050919050565b7f4e487b7100000000000000000000000000000000000000000000000000000000600052601160045260246000fd5b7f4e487b7100000000000000000000000000000000000000000000000000000000600052602160045260246000fd5b7f4e487b7100000000000000000000000000000000000000000000000000000000600052602260045260246000fd5b7f4e487b7100000000000000000000000000000000000000000000000000000000600052604160045260246000fd5b6000601f19601f8301169050919050565b600381106143f0576143ef614341565b5b50565b6143fc816141e8565b811461440757600080fd5b50565b61441381614239565b811461441e57600080fd5b5056fea26469706673582212203affac58e38a8f815881b46e477a9877cd109ca675e7c63ba3a32a0e9f81d61664736f6c63430008000033",
    "linkReferences": {},
    "deployedLinkReferences": {}
}