{
    "_format": "hh-sol-artifact-1",
    "contractName": "LegalRoleRegistry3",
    "sourceName": "contracts/LegalRoleRegistry3.sol",
    "abi": [
        {
            "inputs": [],
            "stateMutability": "nonpayable",
            "type": "constructor"
        },
        {
            "anonymous": false,
            "inputs": [
                {
                    "indexed": true,
                    "internalType": "string",
                    "name": "caseId",
                    "type": "string"
                },
                {
                    "indexed": true,
                    "internalType": "address",
                    "name": "clientId",
                    "type": "address"
                },
                {
                    "indexed": true,
                    "internalType": "address",
                    "name": "lawyerId",
                    "type": "address"
                },
                {
                    "indexed": false,
                    "internalType": "string",
                    "name": "documentLink",
                    "type": "string"
                }
            ],
            "name": "CaseAdded",
            "type": "event"
        },
        {
            "anonymous": false,
            "inputs": [
                {
                    "indexed": true,
                    "internalType": "address",
                    "name": "client",
                    "type": "address"
                },
                {
                    "indexed": false,
                    "internalType": "bool",
                    "name": "alreadyExists",
                    "type": "bool"
                },
                {
                    "indexed": false,
                    "internalType": "bool",
                    "name": "inOtherRole",
                    "type": "bool"
                }
            ],
            "name": "ClientAdded",
            "type": "event"
        },
        {
            "anonymous": false,
            "inputs": [
                {
                    "indexed": true,
                    "internalType": "address",
                    "name": "judge",
                    "type": "address"
                },
                {
                    "indexed": false,
                    "internalType": "bool",
                    "name": "alreadyExists",
                    "type": "bool"
                },
                {
                    "indexed": false,
                    "internalType": "bool",
                    "name": "inOtherRole",
                    "type": "bool"
                }
            ],
            "name": "JudgeAdded",
            "type": "event"
        },
        {
            "anonymous": false,
            "inputs": [
                {
                    "indexed": true,
                    "internalType": "address",
                    "name": "lawyer",
                    "type": "address"
                },
                {
                    "indexed": false,
                    "internalType": "bool",
                    "name": "alreadyExists",
                    "type": "bool"
                },
                {
                    "indexed": false,
                    "internalType": "bool",
                    "name": "inOtherRole",
                    "type": "bool"
                }
            ],
            "name": "LawyerAdded",
            "type": "event"
        },
        {
            "inputs": [
                {
                    "internalType": "string",
                    "name": "_caseId",
                    "type": "string"
                },
                {
                    "internalType": "address",
                    "name": "_clientId",
                    "type": "address"
                },
                {
                    "internalType": "address",
                    "name": "_lawyerId",
                    "type": "address"
                },
                {
                    "internalType": "string",
                    "name": "_documentLink",
                    "type": "string"
                }
            ],
            "name": "addCase",
            "outputs": [],
            "stateMutability": "nonpayable",
            "type": "function"
        },
        {
            "inputs": [
                {
                    "internalType": "address",
                    "name": "_client",
                    "type": "address"
                },
                {
                    "internalType": "string",
                    "name": "_clientName",
                    "type": "string"
                },
                {
                    "internalType": "string",
                    "name": "_caseId",
                    "type": "string"
                },
                {
                    "internalType": "address",
                    "name": "_lawyerId",
                    "type": "address"
                }
            ],
            "name": "addClient",
            "outputs": [],
            "stateMutability": "nonpayable",
            "type": "function"
        },
        {
            "inputs": [
                {
                    "internalType": "address",
                    "name": "_judge",
                    "type": "address"
                },
                {
                    "internalType": "string",
                    "name": "_name",
                    "type": "string"
                }
            ],
            "name": "addJudge",
            "outputs": [],
            "stateMutability": "nonpayable",
            "type": "function"
        },
        {
            "inputs": [
                {
                    "internalType": "address",
                    "name": "_lawyer",
                    "type": "address"
                },
                {
                    "internalType": "string",
                    "name": "_lawyerName",
                    "type": "string"
                }
            ],
            "name": "addLawyer",
            "outputs": [],
            "stateMutability": "nonpayable",
            "type": "function"
        },
        {
            "inputs": [],
            "name": "admin",
            "outputs": [
                {
                    "internalType": "address",
                    "name": "",
                    "type": "address"
                }
            ],
            "stateMutability": "view",
            "type": "function"
        },
        {
            "inputs": [
                {
                    "internalType": "string",
                    "name": "",
                    "type": "string"
                }
            ],
            "name": "cases",
            "outputs": [
                {
                    "internalType": "string",
                    "name": "caseId",
                    "type": "string"
                },
                {
                    "internalType": "address",
                    "name": "clientId",
                    "type": "address"
                },
                {
                    "internalType": "address",
                    "name": "lawyerId",
                    "type": "address"
                },
                {
                    "internalType": "string",
                    "name": "documentLink",
                    "type": "string"
                }
            ],
            "stateMutability": "view",
            "type": "function"
        },
        {
            "inputs": [
                {
                    "internalType": "uint256",
                    "name": "",
                    "type": "uint256"
                }
            ],
            "name": "casesArray",
            "outputs": [
                {
                    "internalType": "string",
                    "name": "",
                    "type": "string"
                }
            ],
            "stateMutability": "view",
            "type": "function"
        },
        {
            "inputs": [
                {
                    "internalType": "address",
                    "name": "",
                    "type": "address"
                }
            ],
            "name": "clientInfo",
            "outputs": [
                {
                    "internalType": "string",
                    "name": "clientName",
                    "type": "string"
                },
                {
                    "internalType": "address",
                    "name": "clientAddress",
                    "type": "address"
                },
                {
                    "internalType": "string",
                    "name": "caseId",
                    "type": "string"
                },
                {
                    "internalType": "address",
                    "name": "lawyerId",
                    "type": "address"
                }
            ],
            "stateMutability": "view",
            "type": "function"
        },
        {
            "inputs": [
                {
                    "internalType": "address",
                    "name": "",
                    "type": "address"
                }
            ],
            "name": "clients",
            "outputs": [
                {
                    "internalType": "enum LegalRoleRegistry3.Role",
                    "name": "",
                    "type": "uint8"
                }
            ],
            "stateMutability": "view",
            "type": "function"
        },
        {
            "inputs": [
                {
                    "internalType": "uint256",
                    "name": "",
                    "type": "uint256"
                }
            ],
            "name": "clientsArray",
            "outputs": [
                {
                    "internalType": "address",
                    "name": "",
                    "type": "address"
                }
            ],
            "stateMutability": "view",
            "type": "function"
        },
        {
            "inputs": [
                {
                    "internalType": "string",
                    "name": "_caseId",
                    "type": "string"
                }
            ],
            "name": "getCaseDetails",
            "outputs": [
                {
                    "internalType": "string",
                    "name": "",
                    "type": "string"
                },
                {
                    "internalType": "address",
                    "name": "",
                    "type": "address"
                },
                {
                    "internalType": "address",
                    "name": "",
                    "type": "address"
                },
                {
                    "internalType": "address",
                    "name": "",
                    "type": "address"
                },
                {
                    "internalType": "string",
                    "name": "",
                    "type": "string"
                }
            ],
            "stateMutability": "view",
            "type": "function"
        },
        {
            "inputs": [],
            "name": "getCasesArray",
            "outputs": [
                {
                    "internalType": "string[]",
                    "name": "",
                    "type": "string[]"
                }
            ],
            "stateMutability": "view",
            "type": "function"
        },
        {
            "inputs": [],
            "name": "getClientArray",
            "outputs": [
                {
                    "internalType": "address[]",
                    "name": "",
                    "type": "address[]"
                }
            ],
            "stateMutability": "view",
            "type": "function"
        },
        {
            "inputs": [
                {
                    "internalType": "address",
                    "name": "_client",
                    "type": "address"
                }
            ],
            "name": "getClientDetails",
            "outputs": [
                {
                    "internalType": "string",
                    "name": "",
                    "type": "string"
                },
                {
                    "internalType": "address",
                    "name": "",
                    "type": "address"
                },
                {
                    "internalType": "string",
                    "name": "",
                    "type": "string"
                },
                {
                    "internalType": "address",
                    "name": "",
                    "type": "address"
                }
            ],
            "stateMutability": "view",
            "type": "function"
        },
        {
            "inputs": [
                {
                    "internalType": "address",
                    "name": "_judge",
                    "type": "address"
                }
            ],
            "name": "getJudgeDetails",
            "outputs": [
                {
                    "internalType": "string",
                    "name": "",
                    "type": "string"
                },
                {
                    "internalType": "address",
                    "name": "",
                    "type": "address"
                },
                {
                    "internalType": "string[]",
                    "name": "",
                    "type": "string[]"
                },
                {
                    "internalType": "address[]",
                    "name": "",
                    "type": "address[]"
                }
            ],
            "stateMutability": "view",
            "type": "function"
        },
        {
            "inputs": [],
            "name": "getJudgesArray",
            "outputs": [
                {
                    "internalType": "address[]",
                    "name": "",
                    "type": "address[]"
                }
            ],
            "stateMutability": "view",
            "type": "function"
        },
        {
            "inputs": [
                {
                    "internalType": "address",
                    "name": "_lawyer",
                    "type": "address"
                }
            ],
            "name": "getLawyerDetails",
            "outputs": [
                {
                    "internalType": "string",
                    "name": "",
                    "type": "string"
                },
                {
                    "internalType": "address",
                    "name": "",
                    "type": "address"
                },
                {
                    "internalType": "string[]",
                    "name": "",
                    "type": "string[]"
                },
                {
                    "internalType": "address[]",
                    "name": "",
                    "type": "address[]"
                }
            ],
            "stateMutability": "view",
            "type": "function"
        },
        {
            "inputs": [],
            "name": "getLawyersArray",
            "outputs": [
                {
                    "internalType": "address[]",
                    "name": "",
                    "type": "address[]"
                }
            ],
            "stateMutability": "view",
            "type": "function"
        },
        {
            "inputs": [
                {
                    "internalType": "address",
                    "name": "",
                    "type": "address"
                }
            ],
            "name": "judgeInfo",
            "outputs": [
                {
                    "internalType": "string",
                    "name": "name",
                    "type": "string"
                },
                {
                    "internalType": "address",
                    "name": "judgeAddress",
                    "type": "address"
                }
            ],
            "stateMutability": "view",
            "type": "function"
        },
        {
            "inputs": [
                {
                    "internalType": "address",
                    "name": "",
                    "type": "address"
                }
            ],
            "name": "judges",
            "outputs": [
                {
                    "internalType": "enum LegalRoleRegistry3.Role",
                    "name": "",
                    "type": "uint8"
                }
            ],
            "stateMutability": "view",
            "type": "function"
        },
        {
            "inputs": [
                {
                    "internalType": "uint256",
                    "name": "",
                    "type": "uint256"
                }
            ],
            "name": "judgesArray",
            "outputs": [
                {
                    "internalType": "address",
                    "name": "",
                    "type": "address"
                }
            ],
            "stateMutability": "view",
            "type": "function"
        },
        {
            "inputs": [
                {
                    "internalType": "address",
                    "name": "",
                    "type": "address"
                }
            ],
            "name": "lawyerInfo",
            "outputs": [
                {
                    "internalType": "string",
                    "name": "lawyerName",
                    "type": "string"
                },
                {
                    "internalType": "address",
                    "name": "lawyerId",
                    "type": "address"
                }
            ],
            "stateMutability": "view",
            "type": "function"
        },
        {
            "inputs": [
                {
                    "internalType": "address",
                    "name": "",
                    "type": "address"
                }
            ],
            "name": "lawyers",
            "outputs": [
                {
                    "internalType": "enum LegalRoleRegistry3.Role",
                    "name": "",
                    "type": "uint8"
                }
            ],
            "stateMutability": "view",
            "type": "function"
        },
        {
            "inputs": [
                {
                    "internalType": "uint256",
                    "name": "",
                    "type": "uint256"
                }
            ],
            "name": "lawyersArray",
            "outputs": [
                {
                    "internalType": "address",
                    "name": "",
                    "type": "address"
                }
            ],
            "stateMutability": "view",
            "type": "function"
        }
    ],
    "bytecode": "0x608060405234801561001057600080fd5b50336000806101000a81548173ffffffffffffffffffffffffffffffffffffffff021916908373ffffffffffffffffffffffffffffffffffffffff16021790555061472c806100606000396000f3fe608060405234801561001057600080fd5b50600436106101585760003560e01c8063758dde96116100c3578063e9aa92931161007c578063e9aa92931461045b578063ee32094a14610477578063ee439872146104aa578063f30d851a146104c6578063f851a440146104f9578063fb6d24b91461051757610158565b8063758dde96146103325780637a720461146103655780638422a2f2146103955780638bf3bbed146103c5578063d82e61ae146103f8578063df9658291461042857610158565b80635509127a116101155780635509127a1461025c578063554ae5671461027a57806361eed2a9146102aa57806366267d9b146102da5780636dbeacd2146102f65780637161f8901461031457610158565b8063021137581461015d578063069361ed1461019157806310a7c001146101af57806315259ad1146101df5780632ccdf78b146101fb57806330b8f3721461022b575b600080fd5b61017760048036038101906101729190613a68565b610548565b604051610188959493929190614131565b60405180910390f35b610199610b4b565b6040516101a69190614057565b60405180910390f35b6101c960048036038101906101c49190613b3c565b610c67565b6040516101d6919061403c565b60405180910390f35b6101f960048036038101906101f49190613aa9565b610ca6565b005b61021560048036038101906102109190613b3c565b611267565b604051610222919061403c565b60405180910390f35b61024560048036038101906102409190613958565b6112a6565b604051610253929190614101565b60405180910390f35b610264611372565b6040516102719190614079565b60405180910390f35b610294600480360381019061028f9190613958565b6114d9565b6040516102a191906140c4565b60405180910390f35b6102c460048036038101906102bf9190613958565b6114f9565b6040516102d191906140c4565b60405180910390f35b6102f460048036038101906102ef9190613981565b611519565b005b6102fe6119ae565b60405161030b9190614057565b60405180910390f35b61031c611aca565b6040516103299190614057565b60405180910390f35b61034c60048036038101906103479190613958565b611be6565b60405161035c949392919061423f565b60405180910390f35b61037f600480360381019061037a9190613b3c565b611d66565b60405161038c91906140df565b60405180910390f35b6103af60048036038101906103aa9190613958565b611e12565b6040516103bc91906140c4565b60405180910390f35b6103df60048036038101906103da9190613958565b611e32565b6040516103ef949392919061423f565b60405180910390f35b610412600480360381019061040d9190613b3c565b61220a565b60405161041f919061403c565b60405180910390f35b610442600480360381019061043d9190613a68565b612249565b6040516104529493929190614192565b60405180910390f35b610475600480360381019061047091906139d5565b6123df565b005b610491600480360381019061048c9190613958565b6127d3565b6040516104a194939291906141e5565b60405180910390f35b6104c460048036038101906104bf9190613981565b612c27565b005b6104e060048036038101906104db9190613958565b6130bc565b6040516104f094939291906141e5565b60405180910390f35b610501613511565b60405161050e919061403c565b60405180910390f35b610531600480360381019061052c9190613958565b613535565b60405161053f929190614101565b60405180910390f35b60606000806000606060008054906101000a900473ffffffffffffffffffffffffffffffffffffffff1673ffffffffffffffffffffffffffffffffffffffff163373ffffffffffffffffffffffffffffffffffffffff16146105df576040517f08c379a00000000000000000000000000000000000000000000000000000000081526004016105d690614292565b60405180910390fd5b6000806000606060005b600880549050811015610869578a80519060200120600660006008848154811061063c577f4e487b7100000000000000000000000000000000000000000000000000000000600052603260045260246000fd5b9060005260206000200160009054906101000a900473ffffffffffffffffffffffffffffffffffffffff1673ffffffffffffffffffffffffffffffffffffffff1673ffffffffffffffffffffffffffffffffffffffff1681526020019081526020016000206002016040516106b1919061400e565b604051809103902014156108565760066000600883815481106106fd577f4e487b7100000000000000000000000000000000000000000000000000000000600052603260045260246000fd5b9060005260206000200160009054906101000a900473ffffffffffffffffffffffffffffffffffffffff1673ffffffffffffffffffffffffffffffffffffffff1673ffffffffffffffffffffffffffffffffffffffff16815260200190815260200160002060010160009054906101000a900473ffffffffffffffffffffffffffffffffffffffff16945060066000600883815481106107c6577f4e487b7100000000000000000000000000000000000000000000000000000000600052603260045260246000fd5b9060005260206000200160009054906101000a900473ffffffffffffffffffffffffffffffffffffffff1673ffffffffffffffffffffffffffffffffffffffff1673ffffffffffffffffffffffffffffffffffffffff16815260200190815260200160002060030160009054906101000a900473ffffffffffffffffffffffffffffffffffffffff169350610869565b80806108619061459e565b9150506105e9565b5060005b600980549050811015610b2e5760005b60056000600984815481106108bb577f4e487b7100000000000000000000000000000000000000000000000000000000600052603260045260246000fd5b9060005260206000200160009054906101000a900473ffffffffffffffffffffffffffffffffffffffff1673ffffffffffffffffffffffffffffffffffffffff1673ffffffffffffffffffffffffffffffffffffffff16815260200190815260200160002060020180549050811015610b1a578b805190602001206005600060098581548110610974577f4e487b7100000000000000000000000000000000000000000000000000000000600052603260045260246000fd5b9060005260206000200160009054906101000a900473ffffffffffffffffffffffffffffffffffffffff1673ffffffffffffffffffffffffffffffffffffffff1673ffffffffffffffffffffffffffffffffffffffff1681526020019081526020016000206002018281548110610a14577f4e487b7100000000000000000000000000000000000000000000000000000000600052603260045260246000fd5b90600052602060002001604051610a2b919061400e565b60405180910390201415610b07576005600060098481548110610a77577f4e487b7100000000000000000000000000000000000000000000000000000000600052603260045260246000fd5b9060005260206000200160009054906101000a900473ffffffffffffffffffffffffffffffffffffffff1673ffffffffffffffffffffffffffffffffffffffff1673ffffffffffffffffffffffffffffffffffffffff16815260200190815260200160002060010160009054906101000a900473ffffffffffffffffffffffffffffffffffffffff169350610b1a565b8080610b129061459e565b91505061087d565b508080610b269061459e565b91505061086d565b508984848484985098509850985098505050505091939590929450565b606060008054906101000a900473ffffffffffffffffffffffffffffffffffffffff1673ffffffffffffffffffffffffffffffffffffffff163373ffffffffffffffffffffffffffffffffffffffff1614610bdb576040517f08c379a0000000000000000000000000000000000000000000000000000000008152600401610bd290614292565b60405180910390fd5b6008805480602002602001604051908101604052809291908181526020018280548015610c5d57602002820191906000526020600020905b8160009054906101000a900473ffffffffffffffffffffffffffffffffffffffff1673ffffffffffffffffffffffffffffffffffffffff1681526020019060010190808311610c13575b5050505050905090565b60088181548110610c7757600080fd5b906000526020600020016000915054906101000a900473ffffffffffffffffffffffffffffffffffffffff1681565b60008054906101000a900473ffffffffffffffffffffffffffffffffffffffff1673ffffffffffffffffffffffffffffffffffffffff163373ffffffffffffffffffffffffffffffffffffffff1614610d34576040517f08c379a0000000000000000000000000000000000000000000000000000000008152600401610d2b90614292565b60405180910390fd5b60006002811115610d6e577f4e487b7100000000000000000000000000000000000000000000000000000000600052602160045260246000fd5b600260008573ffffffffffffffffffffffffffffffffffffffff1673ffffffffffffffffffffffffffffffffffffffff16815260200190815260200160002060009054906101000a900460ff166002811115610df3577f4e487b7100000000000000000000000000000000000000000000000000000000600052602160045260246000fd5b14610e33576040517f08c379a0000000000000000000000000000000000000000000000000000000008152600401610e2a90614332565b60405180910390fd5b600280811115610e6c577f4e487b7100000000000000000000000000000000000000000000000000000000600052602160045260246000fd5b600460008473ffffffffffffffffffffffffffffffffffffffff1673ffffffffffffffffffffffffffffffffffffffff16815260200190815260200160002060009054906101000a900460ff166002811115610ef1577f4e487b7100000000000000000000000000000000000000000000000000000000600052602160045260246000fd5b14610f31576040517f08c379a0000000000000000000000000000000000000000000000000000000008152600401610f2890614352565b60405180910390fd5b6000600185604051610f439190614025565b90815260200160405180910390206000018054610f5f9061456c565b905014610fa1576040517f08c379a0000000000000000000000000000000000000000000000000000000008152600401610f9890614312565b60405180910390fd5b60405180608001604052808581526020018473ffffffffffffffffffffffffffffffffffffffff1681526020018373ffffffffffffffffffffffffffffffffffffffff16815260200182815250600185604051610ffe9190614025565b908152602001604051809103902060008201518160000190805190602001906110289291906136d5565b5060208201518160010160006101000a81548173ffffffffffffffffffffffffffffffffffffffff021916908373ffffffffffffffffffffffffffffffffffffffff16021790555060408201518160020160006101000a81548173ffffffffffffffffffffffffffffffffffffffff021916908373ffffffffffffffffffffffffffffffffffffffff16021790555060608201518160030190805190602001906110d39291906136d5565b5090505083600660008573ffffffffffffffffffffffffffffffffffffffff1673ffffffffffffffffffffffffffffffffffffffff168152602001908152602001600020600201908051906020019061112d9291906136d5565b50600760008373ffffffffffffffffffffffffffffffffffffffff1673ffffffffffffffffffffffffffffffffffffffff168152602001908152602001600020600201849080600181540180825580915050600190039060005260206000200160009091909190915090805190602001906111a99291906136d5565b50600b849080600181540180825580915050600190039060005260206000200160009091909190915090805190602001906111e59291906136d5565b508173ffffffffffffffffffffffffffffffffffffffff168373ffffffffffffffffffffffffffffffffffffffff16856040516112229190614025565b60405180910390207fa19b5ab1673d3ab0bc63dbad08f6ff34ea61e8c3629d770258f694a7134cf9c58460405161125991906140df565b60405180910390a450505050565b600a818154811061127757600080fd5b906000526020600020016000915054906101000a900473ffffffffffffffffffffffffffffffffffffffff1681565b60076020528060005260406000206000915090508060000180546112c99061456c565b80601f01602080910402602001604051908101604052809291908181526020018280546112f59061456c565b80156113425780601f1061131757610100808354040283529160200191611342565b820191906000526020600020905b81548152906001019060200180831161132557829003601f168201915b5050505050908060010160009054906101000a900473ffffffffffffffffffffffffffffffffffffffff16905082565b606060008054906101000a900473ffffffffffffffffffffffffffffffffffffffff1673ffffffffffffffffffffffffffffffffffffffff163373ffffffffffffffffffffffffffffffffffffffff1614611402576040517f08c379a00000000000000000000000000000000000000000000000000000000081526004016113f990614292565b60405180910390fd5b600b805480602002602001604051908101604052809291908181526020016000905b828210156114d05783829060005260206000200180546114439061456c565b80601f016020809104026020016040519081016040528092919081815260200182805461146f9061456c565b80156114bc5780601f10611491576101008083540402835291602001916114bc565b820191906000526020600020905b81548152906001019060200180831161149f57829003601f168201915b505050505081526020019060010190611424565b50505050905090565b60046020528060005260406000206000915054906101000a900460ff1681565b60026020528060005260406000206000915054906101000a900460ff1681565b60008054906101000a900473ffffffffffffffffffffffffffffffffffffffff1673ffffffffffffffffffffffffffffffffffffffff163373ffffffffffffffffffffffffffffffffffffffff16146115a7576040517f08c379a000000000000000000000000000000000000000000000000000000000815260040161159e90614292565b60405180910390fd5b6115b2826008613601565b1580156115c757506115c5826009613601565b155b611606576040517f08c379a00000000000000000000000000000000000000000000000000000000081526004016115fd90614372565b60405180910390fd5b61161182600a613601565b1561166d578173ffffffffffffffffffffffffffffffffffffffff167fdb69ab68829e12cd41e2ca9bf6dac6445fb1201e056234253beea2ad24ac959a6001600060405161166092919061409b565b60405180910390a26119aa565b6002600460008473ffffffffffffffffffffffffffffffffffffffff1673ffffffffffffffffffffffffffffffffffffffff16815260200190815260200160002060006101000a81548160ff021916908360028111156116f6577f4e487b7100000000000000000000000000000000000000000000000000000000600052602160045260246000fd5b0217905550600a829080600181540180825580915050600190039060005260206000200160009091909190916101000a81548173ffffffffffffffffffffffffffffffffffffffff021916908373ffffffffffffffffffffffffffffffffffffffff16021790555060405180608001604052808281526020018373ffffffffffffffffffffffffffffffffffffffff168152602001600067ffffffffffffffff8111156117cc577f4e487b7100000000000000000000000000000000000000000000000000000000600052604160045260246000fd5b6040519080825280602002602001820160405280156117ff57816020015b60608152602001906001900390816117ea5790505b508152602001600067ffffffffffffffff811115611846577f4e487b7100000000000000000000000000000000000000000000000000000000600052604160045260246000fd5b6040519080825280602002602001820160405280156118745781602001602082028036833780820191505090505b50815250600760008473ffffffffffffffffffffffffffffffffffffffff1673ffffffffffffffffffffffffffffffffffffffff16815260200190815260200160002060008201518160000190805190602001906118d39291906136d5565b5060208201518160010160006101000a81548173ffffffffffffffffffffffffffffffffffffffff021916908373ffffffffffffffffffffffffffffffffffffffff160217905550604082015181600201908051906020019061193792919061375b565b5060608201518160030190805190602001906119549291906137bb565b509050508173ffffffffffffffffffffffffffffffffffffffff167fdb69ab68829e12cd41e2ca9bf6dac6445fb1201e056234253beea2ad24ac959a6000806040516119a192919061409b565b60405180910390a25b5050565b606060008054906101000a900473ffffffffffffffffffffffffffffffffffffffff1673ffffffffffffffffffffffffffffffffffffffff163373ffffffffffffffffffffffffffffffffffffffff1614611a3e576040517f08c379a0000000000000000000000000000000000000000000000000000000008152600401611a3590614292565b60405180910390fd5b6009805480602002602001604051908101604052809291908181526020018280548015611ac057602002820191906000526020600020905b8160009054906101000a900473ffffffffffffffffffffffffffffffffffffffff1673ffffffffffffffffffffffffffffffffffffffff1681526020019060010190808311611a76575b5050505050905090565b606060008054906101000a900473ffffffffffffffffffffffffffffffffffffffff1673ffffffffffffffffffffffffffffffffffffffff163373ffffffffffffffffffffffffffffffffffffffff1614611b5a576040517f08c379a0000000000000000000000000000000000000000000000000000000008152600401611b5190614292565b60405180910390fd5b600a805480602002602001604051908101604052809291908181526020018280548015611bdc57602002820191906000526020600020905b8160009054906101000a900473ffffffffffffffffffffffffffffffffffffffff1673ffffffffffffffffffffffffffffffffffffffff1681526020019060010190808311611b92575b5050505050905090565b6006602052806000526040600020600091509050806000018054611c099061456c565b80601f0160208091040260200160405190810160405280929190818152602001828054611c359061456c565b8015611c825780601f10611c5757610100808354040283529160200191611c82565b820191906000526020600020905b815481529060010190602001808311611c6557829003601f168201915b5050505050908060010160009054906101000a900473ffffffffffffffffffffffffffffffffffffffff1690806002018054611cbd9061456c565b80601f0160208091040260200160405190810160405280929190818152602001828054611ce99061456c565b8015611d365780601f10611d0b57610100808354040283529160200191611d36565b820191906000526020600020905b815481529060010190602001808311611d1957829003601f168201915b5050505050908060030160009054906101000a900473ffffffffffffffffffffffffffffffffffffffff16905084565b600b8181548110611d7657600080fd5b906000526020600020016000915090508054611d919061456c565b80601f0160208091040260200160405190810160405280929190818152602001828054611dbd9061456c565b8015611e0a5780601f10611ddf57610100808354040283529160200191611e0a565b820191906000526020600020905b815481529060010190602001808311611ded57829003601f168201915b505050505081565b60036020528060005260406000206000915054906101000a900460ff1681565b60606000606060008060009054906101000a900473ffffffffffffffffffffffffffffffffffffffff1673ffffffffffffffffffffffffffffffffffffffff163373ffffffffffffffffffffffffffffffffffffffff1614611ec9576040517f08c379a0000000000000000000000000000000000000000000000000000000008152600401611ec090614292565b60405180910390fd5b60006002811115611f03577f4e487b7100000000000000000000000000000000000000000000000000000000600052602160045260246000fd5b600260008773ffffffffffffffffffffffffffffffffffffffff1673ffffffffffffffffffffffffffffffffffffffff16815260200190815260200160002060009054906101000a900460ff166002811115611f88577f4e487b7100000000000000000000000000000000000000000000000000000000600052602160045260246000fd5b14611fc8576040517f08c379a0000000000000000000000000000000000000000000000000000000008152600401611fbf906142f2565b60405180910390fd5b6000600660008773ffffffffffffffffffffffffffffffffffffffff1673ffffffffffffffffffffffffffffffffffffffff1681526020019081526020016000206040518060800160405290816000820180546120249061456c565b80601f01602080910402602001604051908101604052809291908181526020018280546120509061456c565b801561209d5780601f106120725761010080835404028352916020019161209d565b820191906000526020600020905b81548152906001019060200180831161208057829003601f168201915b505050505081526020016001820160009054906101000a900473ffffffffffffffffffffffffffffffffffffffff1673ffffffffffffffffffffffffffffffffffffffff1673ffffffffffffffffffffffffffffffffffffffff16815260200160028201805461210c9061456c565b80601f01602080910402602001604051908101604052809291908181526020018280546121389061456c565b80156121855780601f1061215a57610100808354040283529160200191612185565b820191906000526020600020905b81548152906001019060200180831161216857829003601f168201915b505050505081526020016003820160009054906101000a900473ffffffffffffffffffffffffffffffffffffffff1673ffffffffffffffffffffffffffffffffffffffff1673ffffffffffffffffffffffffffffffffffffffff1681525050905080600001518160200151826040015183606001519450945094509450509193509193565b6009818154811061221a57600080fd5b906000526020600020016000915054906101000a900473ffffffffffffffffffffffffffffffffffffffff1681565b6001818051602081018201805184825260208301602085012081835280955050505050506000915090508060000180546122829061456c565b80601f01602080910402602001604051908101604052809291908181526020018280546122ae9061456c565b80156122fb5780601f106122d0576101008083540402835291602001916122fb565b820191906000526020600020905b8154815290600101906020018083116122de57829003601f168201915b5050505050908060010160009054906101000a900473ffffffffffffffffffffffffffffffffffffffff16908060020160009054906101000a900473ffffffffffffffffffffffffffffffffffffffff169080600301805461235c9061456c565b80601f01602080910402602001604051908101604052809291908181526020018280546123889061456c565b80156123d55780601f106123aa576101008083540402835291602001916123d5565b820191906000526020600020905b8154815290600101906020018083116123b857829003601f168201915b5050505050905084565b60008054906101000a900473ffffffffffffffffffffffffffffffffffffffff1673ffffffffffffffffffffffffffffffffffffffff163373ffffffffffffffffffffffffffffffffffffffff161461246d576040517f08c379a000000000000000000000000000000000000000000000000000000000815260040161246490614292565b60405180910390fd5b612478846009613601565b15801561248d575061248b84600a613601565b155b6124cc576040517f08c379a00000000000000000000000000000000000000000000000000000000081526004016124c390614372565b60405180910390fd5b6124d7846008613601565b15612533578373ffffffffffffffffffffffffffffffffffffffff167f1df415070dce6424853ed95bdfbde2ec34759b8ad5605be6c8aef75477943d9f6001600060405161252692919061409b565b60405180910390a26127cd565b6000600260008673ffffffffffffffffffffffffffffffffffffffff1673ffffffffffffffffffffffffffffffffffffffff16815260200190815260200160002060006101000a81548160ff021916908360028111156125bc577f4e487b7100000000000000000000000000000000000000000000000000000000600052602160045260246000fd5b02179055506008849080600181540180825580915050600190039060005260206000200160009091909190916101000a81548173ffffffffffffffffffffffffffffffffffffffff021916908373ffffffffffffffffffffffffffffffffffffffff16021790555060405180608001604052808481526020018573ffffffffffffffffffffffffffffffffffffffff1681526020018381526020018273ffffffffffffffffffffffffffffffffffffffff16815250600660008673ffffffffffffffffffffffffffffffffffffffff1673ffffffffffffffffffffffffffffffffffffffff16815260200190815260200160002060008201518160000190805190602001906126cc9291906136d5565b5060208201518160010160006101000a81548173ffffffffffffffffffffffffffffffffffffffff021916908373ffffffffffffffffffffffffffffffffffffffff16021790555060408201518160020190805190602001906127309291906136d5565b5060608201518160030160006101000a81548173ffffffffffffffffffffffffffffffffffffffff021916908373ffffffffffffffffffffffffffffffffffffffff1602179055509050508373ffffffffffffffffffffffffffffffffffffffff167f1df415070dce6424853ed95bdfbde2ec34759b8ad5605be6c8aef75477943d9f6000806040516127c492919061409b565b60405180910390a25b50505050565b6060600060608060008054906101000a900473ffffffffffffffffffffffffffffffffffffffff1673ffffffffffffffffffffffffffffffffffffffff163373ffffffffffffffffffffffffffffffffffffffff1614612868576040517f08c379a000000000000000000000000000000000000000000000000000000000815260040161285f90614292565b60405180910390fd5b6002808111156128a1577f4e487b7100000000000000000000000000000000000000000000000000000000600052602160045260246000fd5b600460008773ffffffffffffffffffffffffffffffffffffffff1673ffffffffffffffffffffffffffffffffffffffff16815260200190815260200160002060009054906101000a900460ff166002811115612926577f4e487b7100000000000000000000000000000000000000000000000000000000600052602160045260246000fd5b14612966576040517f08c379a000000000000000000000000000000000000000000000000000000000815260040161295d906142b2565b60405180910390fd5b6000600760008773ffffffffffffffffffffffffffffffffffffffff1673ffffffffffffffffffffffffffffffffffffffff1681526020019081526020016000206040518060800160405290816000820180546129c29061456c565b80601f01602080910402602001604051908101604052809291908181526020018280546129ee9061456c565b8015612a3b5780601f10612a1057610100808354040283529160200191612a3b565b820191906000526020600020905b815481529060010190602001808311612a1e57829003601f168201915b505050505081526020016001820160009054906101000a900473ffffffffffffffffffffffffffffffffffffffff1673ffffffffffffffffffffffffffffffffffffffff1673ffffffffffffffffffffffffffffffffffffffff16815260200160028201805480602002602001604051908101604052809291908181526020016000905b82821015612b6b578382906000526020600020018054612ade9061456c565b80601f0160208091040260200160405190810160405280929190818152602001828054612b0a9061456c565b8015612b575780601f10612b2c57610100808354040283529160200191612b57565b820191906000526020600020905b815481529060010190602001808311612b3a57829003601f168201915b505050505081526020019060010190612abf565b50505050815260200160038201805480602002602001604051908101604052809291908181526020018280548015612bf857602002820191906000526020600020905b8160009054906101000a900473ffffffffffffffffffffffffffffffffffffffff1673ffffffffffffffffffffffffffffffffffffffff1681526020019060010190808311612bae575b505050505081525050905080600001518160200151826040015183606001519450945094509450509193509193565b60008054906101000a900473ffffffffffffffffffffffffffffffffffffffff1673ffffffffffffffffffffffffffffffffffffffff163373ffffffffffffffffffffffffffffffffffffffff1614612cb5576040517f08c379a0000000000000000000000000000000000000000000000000000000008152600401612cac90614292565b60405180910390fd5b612cc0826008613601565b158015612cd55750612cd382600a613601565b155b612d14576040517f08c379a0000000000000000000000000000000000000000000000000000000008152600401612d0b90614372565b60405180910390fd5b612d1f826009613601565b15612d7b578173ffffffffffffffffffffffffffffffffffffffff167f1b5bf8e3f369e7eadc1c0e996abdb87f0006326ce19feba3360969409a26ab5060016000604051612d6e92919061409b565b60405180910390a26130b8565b6001600360008473ffffffffffffffffffffffffffffffffffffffff1673ffffffffffffffffffffffffffffffffffffffff16815260200190815260200160002060006101000a81548160ff02191690836002811115612e04577f4e487b7100000000000000000000000000000000000000000000000000000000600052602160045260246000fd5b02179055506009829080600181540180825580915050600190039060005260206000200160009091909190916101000a81548173ffffffffffffffffffffffffffffffffffffffff021916908373ffffffffffffffffffffffffffffffffffffffff16021790555060405180608001604052808281526020018373ffffffffffffffffffffffffffffffffffffffff168152602001600067ffffffffffffffff811115612eda577f4e487b7100000000000000000000000000000000000000000000000000000000600052604160045260246000fd5b604051908082528060200260200182016040528015612f0d57816020015b6060815260200190600190039081612ef85790505b508152602001600067ffffffffffffffff811115612f54577f4e487b7100000000000000000000000000000000000000000000000000000000600052604160045260246000fd5b604051908082528060200260200182016040528015612f825781602001602082028036833780820191505090505b50815250600560008473ffffffffffffffffffffffffffffffffffffffff1673ffffffffffffffffffffffffffffffffffffffff1681526020019081526020016000206000820151816000019080519060200190612fe19291906136d5565b5060208201518160010160006101000a81548173ffffffffffffffffffffffffffffffffffffffff021916908373ffffffffffffffffffffffffffffffffffffffff160217905550604082015181600201908051906020019061304592919061375b565b5060608201518160030190805190602001906130629291906137bb565b509050508173ffffffffffffffffffffffffffffffffffffffff167f1b5bf8e3f369e7eadc1c0e996abdb87f0006326ce19feba3360969409a26ab506000806040516130af92919061409b565b60405180910390a25b5050565b6060600060608060008054906101000a900473ffffffffffffffffffffffffffffffffffffffff1673ffffffffffffffffffffffffffffffffffffffff163373ffffffffffffffffffffffffffffffffffffffff1614613151576040517f08c379a000000000000000000000000000000000000000000000000000000000815260040161314890614292565b60405180910390fd5b6001600281111561318b577f4e487b7100000000000000000000000000000000000000000000000000000000600052602160045260246000fd5b600360008773ffffffffffffffffffffffffffffffffffffffff1673ffffffffffffffffffffffffffffffffffffffff16815260200190815260200160002060009054906101000a900460ff166002811115613210577f4e487b7100000000000000000000000000000000000000000000000000000000600052602160045260246000fd5b14613250576040517f08c379a0000000000000000000000000000000000000000000000000000000008152600401613247906142d2565b60405180910390fd5b6000600560008773ffffffffffffffffffffffffffffffffffffffff1673ffffffffffffffffffffffffffffffffffffffff1681526020019081526020016000206040518060800160405290816000820180546132ac9061456c565b80601f01602080910402602001604051908101604052809291908181526020018280546132d89061456c565b80156133255780601f106132fa57610100808354040283529160200191613325565b820191906000526020600020905b81548152906001019060200180831161330857829003601f168201915b505050505081526020016001820160009054906101000a900473ffffffffffffffffffffffffffffffffffffffff1673ffffffffffffffffffffffffffffffffffffffff1673ffffffffffffffffffffffffffffffffffffffff16815260200160028201805480602002602001604051908101604052809291908181526020016000905b828210156134555783829060005260206000200180546133c89061456c565b80601f01602080910402602001604051908101604052809291908181526020018280546133f49061456c565b80156134415780601f1061341657610100808354040283529160200191613441565b820191906000526020600020905b81548152906001019060200180831161342457829003601f168201915b5050505050815260200190600101906133a9565b505050508152602001600382018054806020026020016040519081016040528092919081815260200182805480156134e257602002820191906000526020600020905b8160009054906101000a900473ffffffffffffffffffffffffffffffffffffffff1673ffffffffffffffffffffffffffffffffffffffff1681526020019060010190808311613498575b505050505081525050905080600001518160200151826040015183606001519450945094509450509193509193565b60008054906101000a900473ffffffffffffffffffffffffffffffffffffffff1681565b60056020528060005260406000206000915090508060000180546135589061456c565b80601f01602080910402602001604051908101604052809291908181526020018280546135849061456c565b80156135d15780601f106135a6576101008083540402835291602001916135d1565b820191906000526020600020905b8154815290600101906020018083116135b457829003601f168201915b5050505050908060010160009054906101000a900473ffffffffffffffffffffffffffffffffffffffff16905082565b600080600090505b82805490508110156136c9578373ffffffffffffffffffffffffffffffffffffffff16838281548110613665577f4e487b7100000000000000000000000000000000000000000000000000000000600052603260045260246000fd5b9060005260206000200160009054906101000a900473ffffffffffffffffffffffffffffffffffffffff1673ffffffffffffffffffffffffffffffffffffffff1614156136b65760019150506136cf565b80806136c19061459e565b915050613609565b50600090505b92915050565b8280546136e19061456c565b90600052602060002090601f016020900481019282613703576000855561374a565b82601f1061371c57805160ff191683800117855561374a565b8280016001018555821561374a579182015b8281111561374957825182559160200191906001019061372e565b5b5090506137579190613845565b5090565b8280548282559060005260206000209081019282156137aa579160200282015b828111156137a95782518290805190602001906137999291906136d5565b509160200191906001019061377b565b5b5090506137b79190613862565b5090565b828054828255906000526020600020908101928215613834579160200282015b828111156138335782518260006101000a81548173ffffffffffffffffffffffffffffffffffffffff021916908373ffffffffffffffffffffffffffffffffffffffff160217905550916020019190600101906137db565b5b5090506138419190613845565b5090565b5b8082111561385e576000816000905550600101613846565b5090565b5b8082111561388257600081816138799190613886565b50600101613863565b5090565b5080546138929061456c565b6000825580601f106138a457506138c3565b601f0160209004906000526020600020908101906138c29190613845565b5b50565b60006138d96138d4846143c3565b614392565b9050828152602081018484840111156138f157600080fd5b6138fc84828561452a565b509392505050565b600081359050613913816146c8565b92915050565b600082601f83011261392a57600080fd5b813561393a8482602086016138c6565b91505092915050565b600081359050613952816146df565b92915050565b60006020828403121561396a57600080fd5b600061397884828501613904565b91505092915050565b6000806040838503121561399457600080fd5b60006139a285828601613904565b925050602083013567ffffffffffffffff8111156139bf57600080fd5b6139cb85828601613919565b9150509250929050565b600080600080608085870312156139eb57600080fd5b60006139f987828801613904565b945050602085013567ffffffffffffffff811115613a1657600080fd5b613a2287828801613919565b935050604085013567ffffffffffffffff811115613a3f57600080fd5b613a4b87828801613919565b9250506060613a5c87828801613904565b91505092959194509250565b600060208284031215613a7a57600080fd5b600082013567ffffffffffffffff811115613a9457600080fd5b613aa084828501613919565b91505092915050565b60008060008060808587031215613abf57600080fd5b600085013567ffffffffffffffff811115613ad957600080fd5b613ae587828801613919565b9450506020613af687828801613904565b9350506040613b0787828801613904565b925050606085013567ffffffffffffffff811115613b2457600080fd5b613b3087828801613919565b91505092959194509250565b600060208284031215613b4e57600080fd5b6000613b5c84828501613943565b91505092915050565b6000613b718383613b91565b60208301905092915050565b6000613b898383613d1f565b905092915050565b613b9a816144bd565b82525050565b613ba9816144bd565b82525050565b6000613bba82614428565b613bc48185614463565b9350613bcf836143f3565b8060005b83811015613c00578151613be78882613b65565b9750613bf283614449565b925050600181019050613bd3565b5085935050505092915050565b6000613c1882614433565b613c228185614474565b935083602082028501613c3485614403565b8060005b85811015613c705784840389528151613c518582613b7d565b9450613c5c83614456565b925060208a01995050600181019050613c38565b50829750879550505050505092915050565b613c8b816144cf565b82525050565b60008154613c9e8161456c565b613ca88186614485565b94506001821660008114613cc35760018114613cd457613d07565b60ff19831686528186019350613d07565b613cdd85614413565b60005b83811015613cff57815481890152600182019150602081019050613ce0565b838801955050505b50505092915050565b613d1981614518565b82525050565b6000613d2a8261443e565b613d348185614490565b9350613d44818560208601614539565b613d4d816146a3565b840191505092915050565b6000613d638261443e565b613d6d81856144a1565b9350613d7d818560208601614539565b613d86816146a3565b840191505092915050565b6000613d9c8261443e565b613da681856144b2565b9350613db6818560208601614539565b80840191505092915050565b6000613dcf6025836144a1565b91507f4f6e6c79207468652061646d696e2063616e2063616c6c20746869732066756e60008301527f6374696f6e0000000000000000000000000000000000000000000000000000006020830152604082019050919050565b6000613e356017836144a1565b91507f41646472657373206973206e6f742061206c61777965720000000000000000006000830152602082019050919050565b6000613e756016836144a1565b91507f41646472657373206973206e6f742061206a75646765000000000000000000006000830152602082019050919050565b6000613eb56017836144a1565b91507f41646472657373206973206e6f74206120636c69656e740000000000000000006000830152602082019050919050565b6000613ef56013836144a1565b91507f4361736520616c726561647920657869737473000000000000000000000000006000830152602082019050919050565b6000613f356015836144a1565b91507f436c69656e7420646f6573206e6f7420657869737400000000000000000000006000830152602082019050919050565b6000613f756015836144a1565b91507f4c617779657220646f6573206e6f7420657869737400000000000000000000006000830152602082019050919050565b6000613fb56022836144a1565b91507f4164647265737320697320616c726561647920696e20616e6f7468657220726f60008301527f6c650000000000000000000000000000000000000000000000000000000000006020830152604082019050919050565b600061401a8284613c91565b915081905092915050565b60006140318284613d91565b915081905092915050565b60006020820190506140516000830184613ba0565b92915050565b600060208201905081810360008301526140718184613baf565b905092915050565b600060208201905081810360008301526140938184613c0d565b905092915050565b60006040820190506140b06000830185613c82565b6140bd6020830184613c82565b9392505050565b60006020820190506140d96000830184613d10565b92915050565b600060208201905081810360008301526140f98184613d58565b905092915050565b6000604082019050818103600083015261411b8185613d58565b905061412a6020830184613ba0565b9392505050565b600060a082019050818103600083015261414b8188613d58565b905061415a6020830187613ba0565b6141676040830186613ba0565b6141746060830185613ba0565b81810360808301526141868184613d58565b90509695505050505050565b600060808201905081810360008301526141ac8187613d58565b90506141bb6020830186613ba0565b6141c86040830185613ba0565b81810360608301526141da8184613d58565b905095945050505050565b600060808201905081810360008301526141ff8187613d58565b905061420e6020830186613ba0565b81810360408301526142208185613c0d565b905081810360608301526142348184613baf565b905095945050505050565b600060808201905081810360008301526142598187613d58565b90506142686020830186613ba0565b818103604083015261427a8185613d58565b90506142896060830184613ba0565b95945050505050565b600060208201905081810360008301526142ab81613dc2565b9050919050565b600060208201905081810360008301526142cb81613e28565b9050919050565b600060208201905081810360008301526142eb81613e68565b9050919050565b6000602082019050818103600083015261430b81613ea8565b9050919050565b6000602082019050818103600083015261432b81613ee8565b9050919050565b6000602082019050818103600083015261434b81613f28565b9050919050565b6000602082019050818103600083015261436b81613f68565b9050919050565b6000602082019050818103600083015261438b81613fa8565b9050919050565b6000604051905081810181811067ffffffffffffffff821117156143b9576143b8614674565b5b8060405250919050565b600067ffffffffffffffff8211156143de576143dd614674565b5b601f19601f8301169050602081019050919050565b6000819050602082019050919050565b6000819050602082019050919050565b60008190508160005260206000209050919050565b600081519050919050565b600081519050919050565b600081519050919050565b6000602082019050919050565b6000602082019050919050565b600082825260208201905092915050565b600082825260208201905092915050565b600081905092915050565b600082825260208201905092915050565b600082825260208201905092915050565b600081905092915050565b60006144c8826144ee565b9050919050565b60008115159050919050565b60008190506144e9826146b4565b919050565b600073ffffffffffffffffffffffffffffffffffffffff82169050919050565b6000819050919050565b6000614523826144db565b9050919050565b82818337600083830152505050565b60005b8381101561455757808201518184015260208101905061453c565b83811115614566576000848401525b50505050565b6000600282049050600182168061458457607f821691505b6020821081141561459857614597614645565b5b50919050565b60006145a98261450e565b91507fffffffffffffffffffffffffffffffffffffffffffffffffffffffffffffffff8214156145dc576145db6145e7565b5b600182019050919050565b7f4e487b7100000000000000000000000000000000000000000000000000000000600052601160045260246000fd5b7f4e487b7100000000000000000000000000000000000000000000000000000000600052602160045260246000fd5b7f4e487b7100000000000000000000000000000000000000000000000000000000600052602260045260246000fd5b7f4e487b7100000000000000000000000000000000000000000000000000000000600052604160045260246000fd5b6000601f19601f8301169050919050565b600381106146c5576146c4614616565b5b50565b6146d1816144bd565b81146146dc57600080fd5b50565b6146e88161450e565b81146146f357600080fd5b5056fea264697066735822122097fe62162c77e2ccd0543d472394a7ca61db1715eaf3def7de14b75b2d9e57c364736f6c63430008000033",
    "linkReferences": {},
    "deployedLinkReferences": {}
}