{
    "_format": "hh-sol-artifact-1",
    "contractName": "LegalRoleRegistry",
    "sourceName": "contracts/LegalRoleRegistry.sol",
    "abi": [
        {
            "inputs": [],
            "stateMutability": "nonpayable",
            "type": "constructor"
        },
        {
            "anonymous": false,
            "inputs": [
                {
                    "indexed": true,
                    "internalType": "address",
                    "name": "client",
                    "type": "address"
                },
                {
                    "indexed": false,
                    "internalType": "bool",
                    "name": "alreadyExists",
                    "type": "bool"
                },
                {
                    "indexed": false,
                    "internalType": "bool",
                    "name": "inOtherRole",
                    "type": "bool"
                }
            ],
            "name": "ClientAdded",
            "type": "event"
        },
        {
            "anonymous": false,
            "inputs": [
                {
                    "indexed": true,
                    "internalType": "address",
                    "name": "judge",
                    "type": "address"
                },
                {
                    "indexed": false,
                    "internalType": "bool",
                    "name": "alreadyExists",
                    "type": "bool"
                },
                {
                    "indexed": false,
                    "internalType": "bool",
                    "name": "inOtherRole",
                    "type": "bool"
                }
            ],
            "name": "JudgeAdded",
            "type": "event"
        },
        {
            "anonymous": false,
            "inputs": [
                {
                    "indexed": true,
                    "internalType": "address",
                    "name": "lawyer",
                    "type": "address"
                },
                {
                    "indexed": false,
                    "internalType": "bool",
                    "name": "alreadyExists",
                    "type": "bool"
                },
                {
                    "indexed": false,
                    "internalType": "bool",
                    "name": "inOtherRole",
                    "type": "bool"
                }
            ],
            "name": "LawyerAdded",
            "type": "event"
        },
        {
            "inputs": [
                {
                    "internalType": "address",
                    "name": "_client",
                    "type": "address"
                },
                {
                    "internalType": "string",
                    "name": "_clientName",
                    "type": "string"
                },
                {
                    "internalType": "string",
                    "name": "_caseId",
                    "type": "string"
                },
                {
                    "internalType": "address",
                    "name": "_lawyerId",
                    "type": "address"
                }
            ],
            "name": "addClient",
            "outputs": [],
            "stateMutability": "nonpayable",
            "type": "function"
        },
        {
            "inputs": [
                {
                    "internalType": "address",
                    "name": "_judge",
                    "type": "address"
                },
                {
                    "internalType": "string",
                    "name": "_name",
                    "type": "string"
                }
            ],
            "name": "addJudge",
            "outputs": [],
            "stateMutability": "nonpayable",
            "type": "function"
        },
        {
            "inputs": [
                {
                    "internalType": "address",
                    "name": "_lawyer",
                    "type": "address"
                },
                {
                    "internalType": "string",
                    "name": "_lawyerName",
                    "type": "string"
                }
            ],
            "name": "addLawyer",
            "outputs": [],
            "stateMutability": "nonpayable",
            "type": "function"
        },
        {
            "inputs": [],
            "name": "admin",
            "outputs": [
                {
                    "internalType": "address",
                    "name": "",
                    "type": "address"
                }
            ],
            "stateMutability": "view",
            "type": "function"
        },
        {
            "inputs": [
                {
                    "internalType": "address",
                    "name": "",
                    "type": "address"
                }
            ],
            "name": "clientInfo",
            "outputs": [
                {
                    "internalType": "string",
                    "name": "clientName",
                    "type": "string"
                },
                {
                    "internalType": "address",
                    "name": "clientAddress",
                    "type": "address"
                },
                {
                    "internalType": "string",
                    "name": "caseId",
                    "type": "string"
                },
                {
                    "internalType": "address",
                    "name": "lawyerId",
                    "type": "address"
                }
            ],
            "stateMutability": "view",
            "type": "function"
        },
        {
            "inputs": [
                {
                    "internalType": "address",
                    "name": "",
                    "type": "address"
                }
            ],
            "name": "clients",
            "outputs": [
                {
                    "internalType": "enum LegalRoleRegistry.Role",
                    "name": "",
                    "type": "uint8"
                }
            ],
            "stateMutability": "view",
            "type": "function"
        },
        {
            "inputs": [
                {
                    "internalType": "uint256",
                    "name": "",
                    "type": "uint256"
                }
            ],
            "name": "clientsArray",
            "outputs": [
                {
                    "internalType": "address",
                    "name": "",
                    "type": "address"
                }
            ],
            "stateMutability": "view",
            "type": "function"
        },
        {
            "inputs": [],
            "name": "getClientArray",
            "outputs": [
                {
                    "internalType": "address[]",
                    "name": "",
                    "type": "address[]"
                }
            ],
            "stateMutability": "view",
            "type": "function"
        },
        {
            "inputs": [
                {
                    "internalType": "address",
                    "name": "_client",
                    "type": "address"
                }
            ],
            "name": "getClientDetails",
            "outputs": [
                {
                    "internalType": "string",
                    "name": "",
                    "type": "string"
                },
                {
                    "internalType": "address",
                    "name": "",
                    "type": "address"
                },
                {
                    "internalType": "string",
                    "name": "",
                    "type": "string"
                },
                {
                    "internalType": "address",
                    "name": "",
                    "type": "address"
                }
            ],
            "stateMutability": "view",
            "type": "function"
        },
        {
            "inputs": [
                {
                    "internalType": "address",
                    "name": "_judge",
                    "type": "address"
                }
            ],
            "name": "getJudgeDetails",
            "outputs": [
                {
                    "internalType": "string",
                    "name": "",
                    "type": "string"
                },
                {
                    "internalType": "address",
                    "name": "",
                    "type": "address"
                },
                {
                    "internalType": "string[]",
                    "name": "",
                    "type": "string[]"
                },
                {
                    "internalType": "address[]",
                    "name": "",
                    "type": "address[]"
                }
            ],
            "stateMutability": "view",
            "type": "function"
        },
        {
            "inputs": [],
            "name": "getJudgesArray",
            "outputs": [
                {
                    "internalType": "address[]",
                    "name": "",
                    "type": "address[]"
                }
            ],
            "stateMutability": "view",
            "type": "function"
        },
        {
            "inputs": [
                {
                    "internalType": "address",
                    "name": "_lawyer",
                    "type": "address"
                }
            ],
            "name": "getLawyerDetails",
            "outputs": [
                {
                    "internalType": "string",
                    "name": "",
                    "type": "string"
                },
                {
                    "internalType": "address",
                    "name": "",
                    "type": "address"
                },
                {
                    "internalType": "string[]",
                    "name": "",
                    "type": "string[]"
                },
                {
                    "internalType": "address[]",
                    "name": "",
                    "type": "address[]"
                }
            ],
            "stateMutability": "view",
            "type": "function"
        },
        {
            "inputs": [],
            "name": "getLawyersArray",
            "outputs": [
                {
                    "internalType": "address[]",
                    "name": "",
                    "type": "address[]"
                }
            ],
            "stateMutability": "view",
            "type": "function"
        },
        {
            "inputs": [
                {
                    "internalType": "address",
                    "name": "",
                    "type": "address"
                }
            ],
            "name": "judgeInfo",
            "outputs": [
                {
                    "internalType": "string",
                    "name": "name",
                    "type": "string"
                },
                {
                    "internalType": "address",
                    "name": "judgeAddress",
                    "type": "address"
                }
            ],
            "stateMutability": "view",
            "type": "function"
        },
        {
            "inputs": [
                {
                    "internalType": "address",
                    "name": "",
                    "type": "address"
                }
            ],
            "name": "judges",
            "outputs": [
                {
                    "internalType": "enum LegalRoleRegistry.Role",
                    "name": "",
                    "type": "uint8"
                }
            ],
            "stateMutability": "view",
            "type": "function"
        },
        {
            "inputs": [
                {
                    "internalType": "uint256",
                    "name": "",
                    "type": "uint256"
                }
            ],
            "name": "judgesArray",
            "outputs": [
                {
                    "internalType": "address",
                    "name": "",
                    "type": "address"
                }
            ],
            "stateMutability": "view",
            "type": "function"
        },
        {
            "inputs": [
                {
                    "internalType": "address",
                    "name": "",
                    "type": "address"
                }
            ],
            "name": "lawyerInfo",
            "outputs": [
                {
                    "internalType": "string",
                    "name": "lawyerName",
                    "type": "string"
                },
                {
                    "internalType": "address",
                    "name": "lawyerId",
                    "type": "address"
                }
            ],
            "stateMutability": "view",
            "type": "function"
        },
        {
            "inputs": [
                {
                    "internalType": "address",
                    "name": "",
                    "type": "address"
                }
            ],
            "name": "lawyers",
            "outputs": [
                {
                    "internalType": "enum LegalRoleRegistry.Role",
                    "name": "",
                    "type": "uint8"
                }
            ],
            "stateMutability": "view",
            "type": "function"
        },
        {
            "inputs": [
                {
                    "internalType": "uint256",
                    "name": "",
                    "type": "uint256"
                }
            ],
            "name": "lawyersArray",
            "outputs": [
                {
                    "internalType": "address",
                    "name": "",
                    "type": "address"
                }
            ],
            "stateMutability": "view",
            "type": "function"
        }
    ],
    "bytecode": "0x608060405234801561001057600080fd5b50336000806101000a81548173ffffffffffffffffffffffffffffffffffffffff021916908373ffffffffffffffffffffffffffffffffffffffff1602179055506132c2806100606000396000f3fe608060405234801561001057600080fd5b50600436106101215760003560e01c8063758dde96116100ad578063ee32094a11610071578063ee32094a1461036f578063ee439872146103a2578063f30d851a146103be578063f851a440146103f1578063fb6d24b91461040f57610121565b8063758dde961461028d5780638422a2f2146102c05780638bf3bbed146102f0578063d82e61ae14610323578063e9aa92931461035357610121565b8063554ae567116100f4578063554ae567146101d557806361eed2a91461020557806366267d9b146102355780636dbeacd2146102515780637161f8901461026f57610121565b8063069361ed1461012657806310a7c001146101445780632ccdf78b1461017457806330b8f372146101a4575b600080fd5b61012e610440565b60405161013b9190612d70565b60405180910390f35b61015e600480360381019061015991906129f3565b61055c565b60405161016b9190612d55565b60405180910390f35b61018e600480360381019061018991906129f3565b61059b565b60405161019b9190612d55565b60405180910390f35b6101be60048036038101906101b991906128e3565b6105da565b6040516101cc929190612dd6565b60405180910390f35b6101ef60048036038101906101ea91906128e3565b6106a6565b6040516101fc9190612dbb565b60405180910390f35b61021f600480360381019061021a91906128e3565b6106c6565b60405161022c9190612dbb565b60405180910390f35b61024f600480360381019061024a919061290c565b6106e6565b005b610259610b7b565b6040516102669190612d70565b60405180910390f35b610277610c97565b6040516102849190612d70565b60405180910390f35b6102a760048036038101906102a291906128e3565b610db3565b6040516102b79493929190612e60565b60405180910390f35b6102da60048036038101906102d591906128e3565b610f33565b6040516102e79190612dbb565b60405180910390f35b61030a600480360381019061030591906128e3565b610f53565b60405161031a9493929190612e60565b60405180910390f35b61033d600480360381019061033891906129f3565b61132b565b60405161034a9190612d55565b60405180910390f35b61036d60048036038101906103689190612960565b61136a565b005b610389600480360381019061038491906128e3565b61175e565b6040516103999493929190612e06565b60405180910390f35b6103bc60048036038101906103b7919061290c565b611bb2565b005b6103d860048036038101906103d391906128e3565b612047565b6040516103e89493929190612e06565b60405180910390f35b6103f961249c565b6040516104069190612d55565b60405180910390f35b610429600480360381019061042491906128e3565b6124c0565b604051610437929190612dd6565b60405180910390f35b606060008054906101000a900473ffffffffffffffffffffffffffffffffffffffff1673ffffffffffffffffffffffffffffffffffffffff163373ffffffffffffffffffffffffffffffffffffffff16146104d0576040517f08c379a00000000000000000000000000000000000000000000000000000000081526004016104c790612eb3565b60405180910390fd5b600780548060200260200160405190810160405280929190818152602001828054801561055257602002820191906000526020600020905b8160009054906101000a900473ffffffffffffffffffffffffffffffffffffffff1673ffffffffffffffffffffffffffffffffffffffff1681526020019060010190808311610508575b5050505050905090565b6007818154811061056c57600080fd5b906000526020600020016000915054906101000a900473ffffffffffffffffffffffffffffffffffffffff1681565b600981815481106105ab57600080fd5b906000526020600020016000915054906101000a900473ffffffffffffffffffffffffffffffffffffffff1681565b60066020528060005260406000206000915090508060000180546105fd90613102565b80601f016020809104026020016040519081016040528092919081815260200182805461062990613102565b80156106765780601f1061064b57610100808354040283529160200191610676565b820191906000526020600020905b81548152906001019060200180831161065957829003601f168201915b5050505050908060010160009054906101000a900473ffffffffffffffffffffffffffffffffffffffff16905082565b60036020528060005260406000206000915054906101000a900460ff1681565b60016020528060005260406000206000915054906101000a900460ff1681565b60008054906101000a900473ffffffffffffffffffffffffffffffffffffffff1673ffffffffffffffffffffffffffffffffffffffff163373ffffffffffffffffffffffffffffffffffffffff1614610774576040517f08c379a000000000000000000000000000000000000000000000000000000000815260040161076b90612eb3565b60405180910390fd5b61077f82600761258c565b158015610794575061079282600861258c565b155b6107d3576040517f08c379a00000000000000000000000000000000000000000000000000000000081526004016107ca90612f33565b60405180910390fd5b6107de82600961258c565b1561083a578173ffffffffffffffffffffffffffffffffffffffff167fdb69ab68829e12cd41e2ca9bf6dac6445fb1201e056234253beea2ad24ac959a6001600060405161082d929190612d92565b60405180910390a2610b77565b6002600360008473ffffffffffffffffffffffffffffffffffffffff1673ffffffffffffffffffffffffffffffffffffffff16815260200190815260200160002060006101000a81548160ff021916908360028111156108c3577f4e487b7100000000000000000000000000000000000000000000000000000000600052602160045260246000fd5b02179055506009829080600181540180825580915050600190039060005260206000200160009091909190916101000a81548173ffffffffffffffffffffffffffffffffffffffff021916908373ffffffffffffffffffffffffffffffffffffffff16021790555060405180608001604052808281526020018373ffffffffffffffffffffffffffffffffffffffff168152602001600067ffffffffffffffff811115610999577f4e487b7100000000000000000000000000000000000000000000000000000000600052604160045260246000fd5b6040519080825280602002602001820160405280156109cc57816020015b60608152602001906001900390816109b75790505b508152602001600067ffffffffffffffff811115610a13577f4e487b7100000000000000000000000000000000000000000000000000000000600052604160045260246000fd5b604051908082528060200260200182016040528015610a415781602001602082028036833780820191505090505b50815250600660008473ffffffffffffffffffffffffffffffffffffffff1673ffffffffffffffffffffffffffffffffffffffff1681526020019081526020016000206000820151816000019080519060200190610aa0929190612660565b5060208201518160010160006101000a81548173ffffffffffffffffffffffffffffffffffffffff021916908373ffffffffffffffffffffffffffffffffffffffff1602179055506040820151816002019080519060200190610b049291906126e6565b506060820151816003019080519060200190610b21929190612746565b509050508173ffffffffffffffffffffffffffffffffffffffff167fdb69ab68829e12cd41e2ca9bf6dac6445fb1201e056234253beea2ad24ac959a600080604051610b6e929190612d92565b60405180910390a25b5050565b606060008054906101000a900473ffffffffffffffffffffffffffffffffffffffff1673ffffffffffffffffffffffffffffffffffffffff163373ffffffffffffffffffffffffffffffffffffffff1614610c0b576040517f08c379a0000000000000000000000000000000000000000000000000000000008152600401610c0290612eb3565b60405180910390fd5b6008805480602002602001604051908101604052809291908181526020018280548015610c8d57602002820191906000526020600020905b8160009054906101000a900473ffffffffffffffffffffffffffffffffffffffff1673ffffffffffffffffffffffffffffffffffffffff1681526020019060010190808311610c43575b5050505050905090565b606060008054906101000a900473ffffffffffffffffffffffffffffffffffffffff1673ffffffffffffffffffffffffffffffffffffffff163373ffffffffffffffffffffffffffffffffffffffff1614610d27576040517f08c379a0000000000000000000000000000000000000000000000000000000008152600401610d1e90612eb3565b60405180910390fd5b6009805480602002602001604051908101604052809291908181526020018280548015610da957602002820191906000526020600020905b8160009054906101000a900473ffffffffffffffffffffffffffffffffffffffff1673ffffffffffffffffffffffffffffffffffffffff1681526020019060010190808311610d5f575b5050505050905090565b6005602052806000526040600020600091509050806000018054610dd690613102565b80601f0160208091040260200160405190810160405280929190818152602001828054610e0290613102565b8015610e4f5780601f10610e2457610100808354040283529160200191610e4f565b820191906000526020600020905b815481529060010190602001808311610e3257829003601f168201915b5050505050908060010160009054906101000a900473ffffffffffffffffffffffffffffffffffffffff1690806002018054610e8a90613102565b80601f0160208091040260200160405190810160405280929190818152602001828054610eb690613102565b8015610f035780601f10610ed857610100808354040283529160200191610f03565b820191906000526020600020905b815481529060010190602001808311610ee657829003601f168201915b5050505050908060030160009054906101000a900473ffffffffffffffffffffffffffffffffffffffff16905084565b60026020528060005260406000206000915054906101000a900460ff1681565b60606000606060008060009054906101000a900473ffffffffffffffffffffffffffffffffffffffff1673ffffffffffffffffffffffffffffffffffffffff163373ffffffffffffffffffffffffffffffffffffffff1614610fea576040517f08c379a0000000000000000000000000000000000000000000000000000000008152600401610fe190612eb3565b60405180910390fd5b60006002811115611024577f4e487b7100000000000000000000000000000000000000000000000000000000600052602160045260246000fd5b600160008773ffffffffffffffffffffffffffffffffffffffff1673ffffffffffffffffffffffffffffffffffffffff16815260200190815260200160002060009054906101000a900460ff1660028111156110a9577f4e487b7100000000000000000000000000000000000000000000000000000000600052602160045260246000fd5b146110e9576040517f08c379a00000000000000000000000000000000000000000000000000000000081526004016110e090612f13565b60405180910390fd5b6000600560008773ffffffffffffffffffffffffffffffffffffffff1673ffffffffffffffffffffffffffffffffffffffff16815260200190815260200160002060405180608001604052908160008201805461114590613102565b80601f016020809104026020016040519081016040528092919081815260200182805461117190613102565b80156111be5780601f10611193576101008083540402835291602001916111be565b820191906000526020600020905b8154815290600101906020018083116111a157829003601f168201915b505050505081526020016001820160009054906101000a900473ffffffffffffffffffffffffffffffffffffffff1673ffffffffffffffffffffffffffffffffffffffff1673ffffffffffffffffffffffffffffffffffffffff16815260200160028201805461122d90613102565b80601f016020809104026020016040519081016040528092919081815260200182805461125990613102565b80156112a65780601f1061127b576101008083540402835291602001916112a6565b820191906000526020600020905b81548152906001019060200180831161128957829003601f168201915b505050505081526020016003820160009054906101000a900473ffffffffffffffffffffffffffffffffffffffff1673ffffffffffffffffffffffffffffffffffffffff1673ffffffffffffffffffffffffffffffffffffffff1681525050905080600001518160200151826040015183606001519450945094509450509193509193565b6008818154811061133b57600080fd5b906000526020600020016000915054906101000a900473ffffffffffffffffffffffffffffffffffffffff1681565b60008054906101000a900473ffffffffffffffffffffffffffffffffffffffff1673ffffffffffffffffffffffffffffffffffffffff163373ffffffffffffffffffffffffffffffffffffffff16146113f8576040517f08c379a00000000000000000000000000000000000000000000000000000000081526004016113ef90612eb3565b60405180910390fd5b61140384600861258c565b158015611418575061141684600961258c565b155b611457576040517f08c379a000000000000000000000000000000000000000000000000000000000815260040161144e90612f33565b60405180910390fd5b61146284600761258c565b156114be578373ffffffffffffffffffffffffffffffffffffffff167f1df415070dce6424853ed95bdfbde2ec34759b8ad5605be6c8aef75477943d9f600160006040516114b1929190612d92565b60405180910390a2611758565b6000600160008673ffffffffffffffffffffffffffffffffffffffff1673ffffffffffffffffffffffffffffffffffffffff16815260200190815260200160002060006101000a81548160ff02191690836002811115611547577f4e487b7100000000000000000000000000000000000000000000000000000000600052602160045260246000fd5b02179055506007849080600181540180825580915050600190039060005260206000200160009091909190916101000a81548173ffffffffffffffffffffffffffffffffffffffff021916908373ffffffffffffffffffffffffffffffffffffffff16021790555060405180608001604052808481526020018573ffffffffffffffffffffffffffffffffffffffff1681526020018381526020018273ffffffffffffffffffffffffffffffffffffffff16815250600560008673ffffffffffffffffffffffffffffffffffffffff1673ffffffffffffffffffffffffffffffffffffffff1681526020019081526020016000206000820151816000019080519060200190611657929190612660565b5060208201518160010160006101000a81548173ffffffffffffffffffffffffffffffffffffffff021916908373ffffffffffffffffffffffffffffffffffffffff16021790555060408201518160020190805190602001906116bb929190612660565b5060608201518160030160006101000a81548173ffffffffffffffffffffffffffffffffffffffff021916908373ffffffffffffffffffffffffffffffffffffffff1602179055509050508373ffffffffffffffffffffffffffffffffffffffff167f1df415070dce6424853ed95bdfbde2ec34759b8ad5605be6c8aef75477943d9f60008060405161174f929190612d92565b60405180910390a25b50505050565b6060600060608060008054906101000a900473ffffffffffffffffffffffffffffffffffffffff1673ffffffffffffffffffffffffffffffffffffffff163373ffffffffffffffffffffffffffffffffffffffff16146117f3576040517f08c379a00000000000000000000000000000000000000000000000000000000081526004016117ea90612eb3565b60405180910390fd5b60028081111561182c577f4e487b7100000000000000000000000000000000000000000000000000000000600052602160045260246000fd5b600360008773ffffffffffffffffffffffffffffffffffffffff1673ffffffffffffffffffffffffffffffffffffffff16815260200190815260200160002060009054906101000a900460ff1660028111156118b1577f4e487b7100000000000000000000000000000000000000000000000000000000600052602160045260246000fd5b146118f1576040517f08c379a00000000000000000000000000000000000000000000000000000000081526004016118e890612ed3565b60405180910390fd5b6000600660008773ffffffffffffffffffffffffffffffffffffffff1673ffffffffffffffffffffffffffffffffffffffff16815260200190815260200160002060405180608001604052908160008201805461194d90613102565b80601f016020809104026020016040519081016040528092919081815260200182805461197990613102565b80156119c65780601f1061199b576101008083540402835291602001916119c6565b820191906000526020600020905b8154815290600101906020018083116119a957829003601f168201915b505050505081526020016001820160009054906101000a900473ffffffffffffffffffffffffffffffffffffffff1673ffffffffffffffffffffffffffffffffffffffff1673ffffffffffffffffffffffffffffffffffffffff16815260200160028201805480602002602001604051908101604052809291908181526020016000905b82821015611af6578382906000526020600020018054611a6990613102565b80601f0160208091040260200160405190810160405280929190818152602001828054611a9590613102565b8015611ae25780601f10611ab757610100808354040283529160200191611ae2565b820191906000526020600020905b815481529060010190602001808311611ac557829003601f168201915b505050505081526020019060010190611a4a565b50505050815260200160038201805480602002602001604051908101604052809291908181526020018280548015611b8357602002820191906000526020600020905b8160009054906101000a900473ffffffffffffffffffffffffffffffffffffffff1673ffffffffffffffffffffffffffffffffffffffff1681526020019060010190808311611b39575b505050505081525050905080600001518160200151826040015183606001519450945094509450509193509193565b60008054906101000a900473ffffffffffffffffffffffffffffffffffffffff1673ffffffffffffffffffffffffffffffffffffffff163373ffffffffffffffffffffffffffffffffffffffff1614611c40576040517f08c379a0000000000000000000000000000000000000000000000000000000008152600401611c3790612eb3565b60405180910390fd5b611c4b82600761258c565b158015611c605750611c5e82600961258c565b155b611c9f576040517f08c379a0000000000000000000000000000000000000000000000000000000008152600401611c9690612f33565b60405180910390fd5b611caa82600861258c565b15611d06578173ffffffffffffffffffffffffffffffffffffffff167f1b5bf8e3f369e7eadc1c0e996abdb87f0006326ce19feba3360969409a26ab5060016000604051611cf9929190612d92565b60405180910390a2612043565b6001600260008473ffffffffffffffffffffffffffffffffffffffff1673ffffffffffffffffffffffffffffffffffffffff16815260200190815260200160002060006101000a81548160ff02191690836002811115611d8f577f4e487b7100000000000000000000000000000000000000000000000000000000600052602160045260246000fd5b02179055506008829080600181540180825580915050600190039060005260206000200160009091909190916101000a81548173ffffffffffffffffffffffffffffffffffffffff021916908373ffffffffffffffffffffffffffffffffffffffff16021790555060405180608001604052808281526020018373ffffffffffffffffffffffffffffffffffffffff168152602001600067ffffffffffffffff811115611e65577f4e487b7100000000000000000000000000000000000000000000000000000000600052604160045260246000fd5b604051908082528060200260200182016040528015611e9857816020015b6060815260200190600190039081611e835790505b508152602001600067ffffffffffffffff811115611edf577f4e487b7100000000000000000000000000000000000000000000000000000000600052604160045260246000fd5b604051908082528060200260200182016040528015611f0d5781602001602082028036833780820191505090505b50815250600460008473ffffffffffffffffffffffffffffffffffffffff1673ffffffffffffffffffffffffffffffffffffffff1681526020019081526020016000206000820151816000019080519060200190611f6c929190612660565b5060208201518160010160006101000a81548173ffffffffffffffffffffffffffffffffffffffff021916908373ffffffffffffffffffffffffffffffffffffffff1602179055506040820151816002019080519060200190611fd09291906126e6565b506060820151816003019080519060200190611fed929190612746565b509050508173ffffffffffffffffffffffffffffffffffffffff167f1b5bf8e3f369e7eadc1c0e996abdb87f0006326ce19feba3360969409a26ab5060008060405161203a929190612d92565b60405180910390a25b5050565b6060600060608060008054906101000a900473ffffffffffffffffffffffffffffffffffffffff1673ffffffffffffffffffffffffffffffffffffffff163373ffffffffffffffffffffffffffffffffffffffff16146120dc576040517f08c379a00000000000000000000000000000000000000000000000000000000081526004016120d390612eb3565b60405180910390fd5b60016002811115612116577f4e487b7100000000000000000000000000000000000000000000000000000000600052602160045260246000fd5b600260008773ffffffffffffffffffffffffffffffffffffffff1673ffffffffffffffffffffffffffffffffffffffff16815260200190815260200160002060009054906101000a900460ff16600281111561219b577f4e487b7100000000000000000000000000000000000000000000000000000000600052602160045260246000fd5b146121db576040517f08c379a00000000000000000000000000000000000000000000000000000000081526004016121d290612ef3565b60405180910390fd5b6000600460008773ffffffffffffffffffffffffffffffffffffffff1673ffffffffffffffffffffffffffffffffffffffff16815260200190815260200160002060405180608001604052908160008201805461223790613102565b80601f016020809104026020016040519081016040528092919081815260200182805461226390613102565b80156122b05780601f10612285576101008083540402835291602001916122b0565b820191906000526020600020905b81548152906001019060200180831161229357829003601f168201915b505050505081526020016001820160009054906101000a900473ffffffffffffffffffffffffffffffffffffffff1673ffffffffffffffffffffffffffffffffffffffff1673ffffffffffffffffffffffffffffffffffffffff16815260200160028201805480602002602001604051908101604052809291908181526020016000905b828210156123e057838290600052602060002001805461235390613102565b80601f016020809104026020016040519081016040528092919081815260200182805461237f90613102565b80156123cc5780601f106123a1576101008083540402835291602001916123cc565b820191906000526020600020905b8154815290600101906020018083116123af57829003601f168201915b505050505081526020019060010190612334565b5050505081526020016003820180548060200260200160405190810160405280929190818152602001828054801561246d57602002820191906000526020600020905b8160009054906101000a900473ffffffffffffffffffffffffffffffffffffffff1673ffffffffffffffffffffffffffffffffffffffff1681526020019060010190808311612423575b505050505081525050905080600001518160200151826040015183606001519450945094509450509193509193565b60008054906101000a900473ffffffffffffffffffffffffffffffffffffffff1681565b60046020528060005260406000206000915090508060000180546124e390613102565b80601f016020809104026020016040519081016040528092919081815260200182805461250f90613102565b801561255c5780601f106125315761010080835404028352916020019161255c565b820191906000526020600020905b81548152906001019060200180831161253f57829003601f168201915b5050505050908060010160009054906101000a900473ffffffffffffffffffffffffffffffffffffffff16905082565b600080600090505b8280549050811015612654578373ffffffffffffffffffffffffffffffffffffffff168382815481106125f0577f4e487b7100000000000000000000000000000000000000000000000000000000600052603260045260246000fd5b9060005260206000200160009054906101000a900473ffffffffffffffffffffffffffffffffffffffff1673ffffffffffffffffffffffffffffffffffffffff16141561264157600191505061265a565b808061264c90613134565b915050612594565b50600090505b92915050565b82805461266c90613102565b90600052602060002090601f01602090048101928261268e57600085556126d5565b82601f106126a757805160ff19168380011785556126d5565b828001600101855582156126d5579182015b828111156126d45782518255916020019190600101906126b9565b5b5090506126e291906127d0565b5090565b828054828255906000526020600020908101928215612735579160200282015b82811115612734578251829080519060200190612724929190612660565b5091602001919060010190612706565b5b50905061274291906127ed565b5090565b8280548282559060005260206000209081019282156127bf579160200282015b828111156127be5782518260006101000a81548173ffffffffffffffffffffffffffffffffffffffff021916908373ffffffffffffffffffffffffffffffffffffffff16021790555091602001919060010190612766565b5b5090506127cc91906127d0565b5090565b5b808211156127e95760008160009055506001016127d1565b5090565b5b8082111561280d57600081816128049190612811565b506001016127ee565b5090565b50805461281d90613102565b6000825580601f1061282f575061284e565b601f01602090049060005260206000209081019061284d91906127d0565b5b50565b600061286461285f84612f84565b612f53565b90508281526020810184848401111561287c57600080fd5b6128878482856130c0565b509392505050565b60008135905061289e8161325e565b92915050565b600082601f8301126128b557600080fd5b81356128c5848260208601612851565b91505092915050565b6000813590506128dd81613275565b92915050565b6000602082840312156128f557600080fd5b60006129038482850161288f565b91505092915050565b6000806040838503121561291f57600080fd5b600061292d8582860161288f565b925050602083013567ffffffffffffffff81111561294a57600080fd5b612956858286016128a4565b9150509250929050565b6000806000806080858703121561297657600080fd5b60006129848782880161288f565b945050602085013567ffffffffffffffff8111156129a157600080fd5b6129ad878288016128a4565b935050604085013567ffffffffffffffff8111156129ca57600080fd5b6129d6878288016128a4565b92505060606129e78782880161288f565b91505092959194509250565b600060208284031215612a0557600080fd5b6000612a13848285016128ce565b91505092915050565b6000612a288383612a48565b60208301905092915050565b6000612a408383612b57565b905092915050565b612a5181613053565b82525050565b612a6081613053565b82525050565b6000612a7182612fd4565b612a7b818561300f565b9350612a8683612fb4565b8060005b83811015612ab7578151612a9e8882612a1c565b9750612aa983612ff5565b925050600181019050612a8a565b5085935050505092915050565b6000612acf82612fdf565b612ad98185613020565b935083602082028501612aeb85612fc4565b8060005b85811015612b275784840389528151612b088582612a34565b9450612b1383613002565b925060208a01995050600181019050612aef565b50829750879550505050505092915050565b612b4281613065565b82525050565b612b51816130ae565b82525050565b6000612b6282612fea565b612b6c8185613031565b9350612b7c8185602086016130cf565b612b8581613239565b840191505092915050565b6000612b9b82612fea565b612ba58185613042565b9350612bb58185602086016130cf565b612bbe81613239565b840191505092915050565b6000612bd6602583613042565b91507f4f6e6c79207468652061646d696e2063616e2063616c6c20746869732066756e60008301527f6374696f6e0000000000000000000000000000000000000000000000000000006020830152604082019050919050565b6000612c3c601783613042565b91507f41646472657373206973206e6f742061206c61777965720000000000000000006000830152602082019050919050565b6000612c7c601683613042565b91507f41646472657373206973206e6f742061206a75646765000000000000000000006000830152602082019050919050565b6000612cbc601783613042565b91507f41646472657373206973206e6f74206120636c69656e740000000000000000006000830152602082019050919050565b6000612cfc602283613042565b91507f4164647265737320697320616c726561647920696e20616e6f7468657220726f60008301527f6c650000000000000000000000000000000000000000000000000000000000006020830152604082019050919050565b6000602082019050612d6a6000830184612a57565b92915050565b60006020820190508181036000830152612d8a8184612a66565b905092915050565b6000604082019050612da76000830185612b39565b612db46020830184612b39565b9392505050565b6000602082019050612dd06000830184612b48565b92915050565b60006040820190508181036000830152612df08185612b90565b9050612dff6020830184612a57565b9392505050565b60006080820190508181036000830152612e208187612b90565b9050612e2f6020830186612a57565b8181036040830152612e418185612ac4565b90508181036060830152612e558184612a66565b905095945050505050565b60006080820190508181036000830152612e7a8187612b90565b9050612e896020830186612a57565b8181036040830152612e9b8185612b90565b9050612eaa6060830184612a57565b95945050505050565b60006020820190508181036000830152612ecc81612bc9565b9050919050565b60006020820190508181036000830152612eec81612c2f565b9050919050565b60006020820190508181036000830152612f0c81612c6f565b9050919050565b60006020820190508181036000830152612f2c81612caf565b9050919050565b60006020820190508181036000830152612f4c81612cef565b9050919050565b6000604051905081810181811067ffffffffffffffff82111715612f7a57612f7961320a565b5b8060405250919050565b600067ffffffffffffffff821115612f9f57612f9e61320a565b5b601f19601f8301169050602081019050919050565b6000819050602082019050919050565b6000819050602082019050919050565b600081519050919050565b600081519050919050565b600081519050919050565b6000602082019050919050565b6000602082019050919050565b600082825260208201905092915050565b600082825260208201905092915050565b600082825260208201905092915050565b600082825260208201905092915050565b600061305e82613084565b9050919050565b60008115159050919050565b600081905061307f8261324a565b919050565b600073ffffffffffffffffffffffffffffffffffffffff82169050919050565b6000819050919050565b60006130b982613071565b9050919050565b82818337600083830152505050565b60005b838110156130ed5780820151818401526020810190506130d2565b838111156130fc576000848401525b50505050565b6000600282049050600182168061311a57607f821691505b6020821081141561312e5761312d6131db565b5b50919050565b600061313f826130a4565b91507fffffffffffffffffffffffffffffffffffffffffffffffffffffffffffffffff8214156131725761317161317d565b5b600182019050919050565b7f4e487b7100000000000000000000000000000000000000000000000000000000600052601160045260246000fd5b7f4e487b7100000000000000000000000000000000000000000000000000000000600052602160045260246000fd5b7f4e487b7100000000000000000000000000000000000000000000000000000000600052602260045260246000fd5b7f4e487b7100000000000000000000000000000000000000000000000000000000600052604160045260246000fd5b6000601f19601f8301169050919050565b6003811061325b5761325a6131ac565b5b50565b61326781613053565b811461327257600080fd5b50565b61327e816130a4565b811461328957600080fd5b5056fea264697066735822122010a7de3a13ba169a5a4af7a9085315ecf1b1e54d764867853af6f39bb437592064736f6c63430008000033",
    "linkReferences": {},
    "deployedLinkReferences": {}
}