{
    "_format": "hh-sol-artifact-1",
    "contractName": "LegalCaseRegistry",
    "sourceName": "contracts/LegalCaseRegistry.sol",
    "abi": [
        {
            "inputs": [],
            "stateMutability": "nonpayable",
            "type": "constructor"
        },
        {
            "anonymous": false,
            "inputs": [
                {
                    "indexed": true,
                    "internalType": "string",
                    "name": "title",
                    "type": "string"
                },
                {
                    "indexed": false,
                    "internalType": "bool",
                    "name": "alreadyExists",
                    "type": "bool"
                }
            ],
            "name": "CaseAdded",
            "type": "event"
        },
        {
            "inputs": [
                {
                    "internalType": "string",
                    "name": "_title",
                    "type": "string"
                },
                {
                    "internalType": "address",
                    "name": "_clientId",
                    "type": "address"
                },
                {
                    "internalType": "address",
                    "name": "_judgeId",
                    "type": "address"
                },
                {
                    "internalType": "address",
                    "name": "_lawyerId",
                    "type": "address"
                },
                {
                    "internalType": "string",
                    "name": "_fileIpfsHash",
                    "type": "string"
                }
            ],
            "name": "addCase",
            "outputs": [],
            "stateMutability": "nonpayable",
            "type": "function"
        },
        {
            "inputs": [],
            "name": "admin",
            "outputs": [
                {
                    "internalType": "address",
                    "name": "",
                    "type": "address"
                }
            ],
            "stateMutability": "view",
            "type": "function"
        },
        {
            "inputs": [
                {
                    "internalType": "string",
                    "name": "",
                    "type": "string"
                }
            ],
            "name": "caseInfo",
            "outputs": [
                {
                    "internalType": "string",
                    "name": "title",
                    "type": "string"
                },
                {
                    "internalType": "address",
                    "name": "clientId",
                    "type": "address"
                },
                {
                    "internalType": "address",
                    "name": "judgeId",
                    "type": "address"
                },
                {
                    "internalType": "address",
                    "name": "lawyerId",
                    "type": "address"
                },
                {
                    "internalType": "string",
                    "name": "fileIpfsHash",
                    "type": "string"
                }
            ],
            "stateMutability": "view",
            "type": "function"
        },
        {
            "inputs": [
                {
                    "internalType": "uint256",
                    "name": "",
                    "type": "uint256"
                }
            ],
            "name": "caseTitlesArray",
            "outputs": [
                {
                    "internalType": "string",
                    "name": "",
                    "type": "string"
                }
            ],
            "stateMutability": "view",
            "type": "function"
        },
        {
            "inputs": [
                {
                    "internalType": "string",
                    "name": "_title",
                    "type": "string"
                }
            ],
            "name": "getCaseDetails",
            "outputs": [
                {
                    "internalType": "string",
                    "name": "",
                    "type": "string"
                },
                {
                    "internalType": "address",
                    "name": "",
                    "type": "address"
                },
                {
                    "internalType": "address",
                    "name": "",
                    "type": "address"
                },
                {
                    "internalType": "address",
                    "name": "",
                    "type": "address"
                },
                {
                    "internalType": "string",
                    "name": "",
                    "type": "string"
                }
            ],
            "stateMutability": "view",
            "type": "function"
        },
        {
            "inputs": [],
            "name": "getCaseTitlesArray",
            "outputs": [
                {
                    "internalType": "string[]",
                    "name": "",
                    "type": "string[]"
                }
            ],
            "stateMutability": "view",
            "type": "function"
        }
    ],
    "bytecode": "0x608060405234801561001057600080fd5b50336000806101000a81548173ffffffffffffffffffffffffffffffffffffffff021916908373ffffffffffffffffffffffffffffffffffffffff16021790555061140d806100606000396000f3fe608060405234801561001057600080fd5b50600436106100625760003560e01c806302113758146100675780633ec017cd1461009b5780633f5677b6146100cf57806355c13bbb146100eb57806382bd47271461011b578063f851a44014610139575b600080fd5b610081600480360381019061007c9190610ccd565b610157565b6040516100929594939291906110eb565b60405180910390f35b6100b560048036038101906100b09190610ccd565b61044b565b6040516100c69594939291906110eb565b60405180910390f35b6100e960048036038101906100e49190610d0e565b610607565b005b61010560048036038101906101009190610db5565b610961565b60405161011291906110c9565b60405180910390f35b610123610a0d565b604051610130919061108c565b60405180910390f35b610141610b74565b60405161014e9190611071565b60405180910390f35b606060008060006060600186604051610170919061105a565b908152602001604051809103902060009054906101000a900460ff166101cb576040517f08c379a00000000000000000000000000000000000000000000000000000000081526004016101c29061116c565b60405180910390fd5b60006002876040516101dd919061105a565b90815260200160405180910390206040518060a001604052908160008201805461020690611308565b80601f016020809104026020016040519081016040528092919081815260200182805461023290611308565b801561027f5780601f106102545761010080835404028352916020019161027f565b820191906000526020600020905b81548152906001019060200180831161026257829003601f168201915b505050505081526020016001820160009054906101000a900473ffffffffffffffffffffffffffffffffffffffff1673ffffffffffffffffffffffffffffffffffffffff1673ffffffffffffffffffffffffffffffffffffffff1681526020016002820160009054906101000a900473ffffffffffffffffffffffffffffffffffffffff1673ffffffffffffffffffffffffffffffffffffffff1673ffffffffffffffffffffffffffffffffffffffff1681526020016003820160009054906101000a900473ffffffffffffffffffffffffffffffffffffffff1673ffffffffffffffffffffffffffffffffffffffff1673ffffffffffffffffffffffffffffffffffffffff16815260200160048201805461039a90611308565b80601f01602080910402602001604051908101604052809291908181526020018280546103c690611308565b80156104135780601f106103e857610100808354040283529160200191610413565b820191906000526020600020905b8154815290600101906020018083116103f657829003601f168201915b505050505081525050905080600001518160200151826040015183606001518460800151955095509550955095505091939590929450565b60028180516020810182018051848252602083016020850120818352809550505050505060009150905080600001805461048490611308565b80601f01602080910402602001604051908101604052809291908181526020018280546104b090611308565b80156104fd5780601f106104d2576101008083540402835291602001916104fd565b820191906000526020600020905b8154815290600101906020018083116104e057829003601f168201915b5050505050908060010160009054906101000a900473ffffffffffffffffffffffffffffffffffffffff16908060020160009054906101000a900473ffffffffffffffffffffffffffffffffffffffff16908060030160009054906101000a900473ffffffffffffffffffffffffffffffffffffffff169080600401805461058490611308565b80601f01602080910402602001604051908101604052809291908181526020018280546105b090611308565b80156105fd5780601f106105d2576101008083540402835291602001916105fd565b820191906000526020600020905b8154815290600101906020018083116105e057829003601f168201915b5050505050905085565b60008054906101000a900473ffffffffffffffffffffffffffffffffffffffff1673ffffffffffffffffffffffffffffffffffffffff163373ffffffffffffffffffffffffffffffffffffffff1614610695576040517f08c379a000000000000000000000000000000000000000000000000000000000815260040161068c9061114c565b60405180910390fd5b6001856040516106a5919061105a565b908152602001604051809103902060009054906101000a900460ff1615610701576040517f08c379a00000000000000000000000000000000000000000000000000000000081526004016106f89061118c565b60405180910390fd5b60018086604051610712919061105a565b908152602001604051809103902060006101000a81548160ff021916908315150217905550600385908060018154018082558091505060019003906000526020600020016000909190919091509080519060200190610772929190610b98565b506040518060a001604052808681526020018573ffffffffffffffffffffffffffffffffffffffff1681526020018473ffffffffffffffffffffffffffffffffffffffff1681526020018373ffffffffffffffffffffffffffffffffffffffff168152602001828152506002866040516107ec919061105a565b90815260200160405180910390206000820151816000019080519060200190610816929190610b98565b5060208201518160010160006101000a81548173ffffffffffffffffffffffffffffffffffffffff021916908373ffffffffffffffffffffffffffffffffffffffff16021790555060408201518160020160006101000a81548173ffffffffffffffffffffffffffffffffffffffff021916908373ffffffffffffffffffffffffffffffffffffffff16021790555060608201518160030160006101000a81548173ffffffffffffffffffffffffffffffffffffffff021916908373ffffffffffffffffffffffffffffffffffffffff1602179055506080820151816004019080519060200190610908929190610b98565b509050508460405161091a919061105a565b60405180910390207f88a4182abb1dec1b05ebde88f92ac4188c98c73c84f16afa2d54819d47366eba600060405161095291906110ae565b60405180910390a25050505050565b6003818154811061097157600080fd5b90600052602060002001600091509050805461098c90611308565b80601f01602080910402602001604051908101604052809291908181526020018280546109b890611308565b8015610a055780601f106109da57610100808354040283529160200191610a05565b820191906000526020600020905b8154815290600101906020018083116109e857829003601f168201915b505050505081565b606060008054906101000a900473ffffffffffffffffffffffffffffffffffffffff1673ffffffffffffffffffffffffffffffffffffffff163373ffffffffffffffffffffffffffffffffffffffff1614610a9d576040517f08c379a0000000000000000000000000000000000000000000000000000000008152600401610a949061114c565b60405180910390fd5b6003805480602002602001604051908101604052809291908181526020016000905b82821015610b6b578382906000526020600020018054610ade90611308565b80601f0160208091040260200160405190810160405280929190818152602001828054610b0a90611308565b8015610b575780601f10610b2c57610100808354040283529160200191610b57565b820191906000526020600020905b815481529060010190602001808311610b3a57829003601f168201915b505050505081526020019060010190610abf565b50505050905090565b60008054906101000a900473ffffffffffffffffffffffffffffffffffffffff1681565b828054610ba490611308565b90600052602060002090601f016020900481019282610bc65760008555610c0d565b82601f10610bdf57805160ff1916838001178555610c0d565b82800160010185558215610c0d579182015b82811115610c0c578251825591602001919060010190610bf1565b5b509050610c1a9190610c1e565b5090565b5b80821115610c37576000816000905550600101610c1f565b5090565b6000610c4e610c49846111dd565b6111ac565b905082815260208101848484011115610c6657600080fd5b610c718482856112c6565b509392505050565b600081359050610c88816113a9565b92915050565b600082601f830112610c9f57600080fd5b8135610caf848260208601610c3b565b91505092915050565b600081359050610cc7816113c0565b92915050565b600060208284031215610cdf57600080fd5b600082013567ffffffffffffffff811115610cf957600080fd5b610d0584828501610c8e565b91505092915050565b600080600080600060a08688031215610d2657600080fd5b600086013567ffffffffffffffff811115610d4057600080fd5b610d4c88828901610c8e565b9550506020610d5d88828901610c79565b9450506040610d6e88828901610c79565b9350506060610d7f88828901610c79565b925050608086013567ffffffffffffffff811115610d9c57600080fd5b610da888828901610c8e565b9150509295509295909350565b600060208284031215610dc757600080fd5b6000610dd584828501610cb8565b91505092915050565b6000610dea8383610e85565b905092915050565b610dfb8161127e565b82525050565b6000610e0c8261121d565b610e168185611240565b935083602082028501610e288561120d565b8060005b85811015610e645784840389528151610e458582610dde565b9450610e5083611233565b925060208a01995050600181019050610e2c565b50829750879550505050505092915050565b610e7f81611290565b82525050565b6000610e9082611228565b610e9a8185611251565b9350610eaa8185602086016112d5565b610eb381611398565b840191505092915050565b6000610ec982611228565b610ed38185611262565b9350610ee38185602086016112d5565b610eec81611398565b840191505092915050565b6000610f0282611228565b610f0c8185611273565b9350610f1c8185602086016112d5565b80840191505092915050565b6000610f35602583611262565b91507f4f6e6c79207468652061646d696e2063616e2063616c6c20746869732066756e60008301527f6374696f6e0000000000000000000000000000000000000000000000000000006020830152604082019050919050565b6000610f9b602383611262565b91507f4361736520776974682074686973207469746c6520646f6573206e6f7420657860008301527f69737400000000000000000000000000000000000000000000000000000000006020830152604082019050919050565b6000611001602383611262565b91507f4361736520776974682074686973207469746c6520616c72656164792065786960008301527f73747300000000000000000000000000000000000000000000000000000000006020830152604082019050919050565b60006110668284610ef7565b915081905092915050565b60006020820190506110866000830184610df2565b92915050565b600060208201905081810360008301526110a68184610e01565b905092915050565b60006020820190506110c36000830184610e76565b92915050565b600060208201905081810360008301526110e38184610ebe565b905092915050565b600060a08201905081810360008301526111058188610ebe565b90506111146020830187610df2565b6111216040830186610df2565b61112e6060830185610df2565b81810360808301526111408184610ebe565b90509695505050505050565b6000602082019050818103600083015261116581610f28565b9050919050565b6000602082019050818103600083015261118581610f8e565b9050919050565b600060208201905081810360008301526111a581610ff4565b9050919050565b6000604051905081810181811067ffffffffffffffff821117156111d3576111d2611369565b5b8060405250919050565b600067ffffffffffffffff8211156111f8576111f7611369565b5b601f19601f8301169050602081019050919050565b6000819050602082019050919050565b600081519050919050565b600081519050919050565b6000602082019050919050565b600082825260208201905092915050565b600082825260208201905092915050565b600082825260208201905092915050565b600081905092915050565b60006112898261129c565b9050919050565b60008115159050919050565b600073ffffffffffffffffffffffffffffffffffffffff82169050919050565b6000819050919050565b82818337600083830152505050565b60005b838110156112f35780820151818401526020810190506112d8565b83811115611302576000848401525b50505050565b6000600282049050600182168061132057607f821691505b602082108114156113345761133361133a565b5b50919050565b7f4e487b7100000000000000000000000000000000000000000000000000000000600052602260045260246000fd5b7f4e487b7100000000000000000000000000000000000000000000000000000000600052604160045260246000fd5b6000601f19601f8301169050919050565b6113b28161127e565b81146113bd57600080fd5b50565b6113c9816112bc565b81146113d457600080fd5b5056fea264697066735822122064faee57dd4e0feafef455144ed7cc422c872ba307a3debc9ce1612bb63478e764736f6c63430008000033",
    "linkReferences": {},
    "deployedLinkReferences": {}
}